{
	"CertificadoMigracion.sol": {
		"CertificateVerifier": {
			"abi": [
				{
					"inputs": [
						{
							"internalType": "string",
							"name": "_pdfHash",
							"type": "string"
						},
						{
							"internalType": "bytes32",
							"name": "_merkleRoot",
							"type": "bytes32"
						},
						{
							"internalType": "bytes",
							"name": "_signature",
							"type": "bytes"
						}
					],
					"name": "storeCertificate",
					"outputs": [],
					"stateMutability": "nonpayable",
					"type": "function"
				},
				{
					"inputs": [
						{
							"internalType": "string",
							"name": "_pdfHash",
							"type": "string"
						},
						{
							"internalType": "bytes32[]",
							"name": "_proof",
							"type": "bytes32[]"
						},
						{
							"internalType": "bytes32",
							"name": "_leaf",
							"type": "bytes32"
						}
					],
					"name": "verifyCertificate",
					"outputs": [
						{
							"internalType": "bool",
							"name": "",
							"type": "bool"
						}
					],
					"stateMutability": "view",
					"type": "function"
				}
			],
			"devdoc": {
				"kind": "dev",
				"methods": {},
				"version": 1
			},
			"evm": {
				"assembly": "    /* \"CertificadoMigracion.sol\":242:2148  contract CertificateVerifier {... */\n  mstore(0x40, 0x80)\n  callvalue\n  dup1\n  iszero\n  tag_1\n  jumpi\n  0x00\n  dup1\n  revert\ntag_1:\n  pop\n  dataSize(sub_0)\n  dup1\n  dataOffset(sub_0)\n  0x00\n  codecopy\n  0x00\n  return\nstop\n\nsub_0: assembly {\n        /* \"CertificadoMigracion.sol\":242:2148  contract CertificateVerifier {... */\n      mstore(0x40, 0x80)\n      callvalue\n      dup1\n      iszero\n      tag_1\n      jumpi\n      0x00\n      dup1\n      revert\n    tag_1:\n      pop\n      jumpi(tag_2, lt(calldatasize, 0x04))\n      shr(0xe0, calldataload(0x00))\n      dup1\n      0x8b214a43\n      eq\n      tag_3\n      jumpi\n      dup1\n      0xfb7fd41c\n      eq\n      tag_4\n      jumpi\n    tag_2:\n      0x00\n      dup1\n      revert\n        /* \"CertificadoMigracion.sol\":924:1492  function verifyCertificate(string memory _pdfHash, bytes32[] memory _proof, bytes32 _leaf) public view returns (bool) {... */\n    tag_3:\n      tag_5\n      0x04\n      dup1\n      calldatasize\n      sub\n      dup2\n      add\n      swap1\n      tag_6\n      swap2\n      swap1\n      tag_7\n      jump\t// in\n    tag_6:\n      tag_8\n      jump\t// in\n    tag_5:\n      mload(0x40)\n      tag_9\n      swap2\n      swap1\n      tag_10\n      jump\t// in\n    tag_9:\n      mload(0x40)\n      dup1\n      swap2\n      sub\n      swap1\n      return\n        /* \"CertificadoMigracion.sol\":662:853  function storeCertificate(string memory _pdfHash, bytes32 _merkleRoot, bytes memory _signature) public {... */\n    tag_4:\n      tag_11\n      0x04\n      dup1\n      calldatasize\n      sub\n      dup2\n      add\n      swap1\n      tag_12\n      swap2\n      swap1\n      tag_13\n      jump\t// in\n    tag_12:\n      tag_14\n      jump\t// in\n    tag_11:\n      stop\n        /* \"CertificadoMigracion.sol\":924:1492  function verifyCertificate(string memory _pdfHash, bytes32[] memory _proof, bytes32 _leaf) public view returns (bool) {... */\n    tag_8:\n        /* \"CertificadoMigracion.sol\":1036:1040  bool */\n      0x00\n        /* \"CertificadoMigracion.sol\":1088:1102  address signer */\n      dup1\n        /* \"CertificadoMigracion.sol\":1105:1162  recoverSigner(_pdfHash, certificates[_pdfHash].signature) */\n      tag_16\n        /* \"CertificadoMigracion.sol\":1119:1127  _pdfHash */\n      dup6\n        /* \"CertificadoMigracion.sol\":1129:1141  certificates */\n      0x00\n        /* \"CertificadoMigracion.sol\":1142:1150  _pdfHash */\n      dup8\n        /* \"CertificadoMigracion.sol\":1129:1151  certificates[_pdfHash] */\n      mload(0x40)\n      tag_17\n      swap2\n      swap1\n      tag_18\n      jump\t// in\n    tag_17:\n      swap1\n      dup2\n      mstore\n      0x20\n      add\n      mload(0x40)\n      dup1\n      swap2\n      sub\n      swap1\n      keccak256\n        /* \"CertificadoMigracion.sol\":1129:1161  certificates[_pdfHash].signature */\n      0x02\n      add\n        /* \"CertificadoMigracion.sol\":1105:1162  recoverSigner(_pdfHash, certificates[_pdfHash].signature) */\n      dup1\n      sload\n      tag_19\n      swap1\n      tag_20\n      jump\t// in\n    tag_19:\n      dup1\n      0x1f\n      add\n      0x20\n      dup1\n      swap2\n      div\n      mul\n      0x20\n      add\n      mload(0x40)\n      swap1\n      dup2\n      add\n      0x40\n      mstore\n      dup1\n      swap3\n      swap2\n      swap1\n      dup2\n      dup2\n      mstore\n      0x20\n      add\n      dup3\n      dup1\n      sload\n      tag_21\n      swap1\n      tag_20\n      jump\t// in\n    tag_21:\n      dup1\n      iszero\n      tag_22\n      jumpi\n      dup1\n      0x1f\n      lt\n      tag_23\n      jumpi\n      0x0100\n      dup1\n      dup4\n      sload\n      div\n      mul\n      dup4\n      mstore\n      swap2\n      0x20\n      add\n      swap2\n      jump(tag_22)\n    tag_23:\n      dup3\n      add\n      swap2\n      swap1\n      0x00\n      mstore\n      keccak256(0x00, 0x20)\n      swap1\n    tag_24:\n      dup2\n      sload\n      dup2\n      mstore\n      swap1\n      0x01\n      add\n      swap1\n      0x20\n      add\n      dup1\n      dup4\n      gt\n      tag_24\n      jumpi\n      dup3\n      swap1\n      sub\n      0x1f\n      and\n      dup3\n      add\n      swap2\n    tag_22:\n      pop\n      pop\n      pop\n      pop\n      pop\n        /* \"CertificadoMigracion.sol\":1105:1118  recoverSigner */\n      tag_25\n        /* \"CertificadoMigracion.sol\":1105:1162  recoverSigner(_pdfHash, certificates[_pdfHash].signature) */\n      jump\t// in\n    tag_16:\n        /* \"CertificadoMigracion.sol\":1088:1162  address signer = recoverSigner(_pdfHash, certificates[_pdfHash].signature) */\n      swap1\n      pop\n        /* \"CertificadoMigracion.sol\":1198:1199  0 */\n      0x00\n        /* \"CertificadoMigracion.sol\":1180:1200  signer != address(0) */\n      0xffffffffffffffffffffffffffffffffffffffff\n      and\n        /* \"CertificadoMigracion.sol\":1180:1186  signer */\n      dup2\n        /* \"CertificadoMigracion.sol\":1180:1200  signer != address(0) */\n      0xffffffffffffffffffffffffffffffffffffffff\n      and\n      sub\n        /* \"CertificadoMigracion.sol\":1172:1220  require(signer != address(0), \"Firma no valida\") */\n      tag_26\n      jumpi\n      mload(0x40)\n      0x08c379a000000000000000000000000000000000000000000000000000000000\n      dup2\n      mstore\n      0x04\n      add\n      tag_27\n      swap1\n      tag_28\n      jump\t// in\n    tag_27:\n      mload(0x40)\n      dup1\n      swap2\n      sub\n      swap1\n      revert\n    tag_26:\n        /* \"CertificadoMigracion.sol\":1280:1348  MerkleProof.verify(_proof, certificates[_pdfHash].merkleRoot, _leaf) */\n      tag_29\n        /* \"CertificadoMigracion.sol\":1299:1305  _proof */\n      dup5\n        /* \"CertificadoMigracion.sol\":1307:1319  certificates */\n      0x00\n        /* \"CertificadoMigracion.sol\":1320:1328  _pdfHash */\n      dup8\n        /* \"CertificadoMigracion.sol\":1307:1329  certificates[_pdfHash] */\n      mload(0x40)\n      tag_30\n      swap2\n      swap1\n      tag_18\n      jump\t// in\n    tag_30:\n      swap1\n      dup2\n      mstore\n      0x20\n      add\n      mload(0x40)\n      dup1\n      swap2\n      sub\n      swap1\n      keccak256\n        /* \"CertificadoMigracion.sol\":1307:1340  certificates[_pdfHash].merkleRoot */\n      0x01\n      add\n      sload\n        /* \"CertificadoMigracion.sol\":1342:1347  _leaf */\n      dup6\n        /* \"CertificadoMigracion.sol\":1280:1298  MerkleProof.verify */\n      tag_31\n        /* \"CertificadoMigracion.sol\":1280:1348  MerkleProof.verify(_proof, certificates[_pdfHash].merkleRoot, _leaf) */\n      jump\t// in\n    tag_29:\n        /* \"CertificadoMigracion.sol\":1272:1379  require(MerkleProof.verify(_proof, certificates[_pdfHash].merkleRoot, _leaf), \"Prueba de Merkle no valida\") */\n      tag_32\n      jumpi\n      mload(0x40)\n      0x08c379a000000000000000000000000000000000000000000000000000000000\n      dup2\n      mstore\n      0x04\n      add\n      tag_33\n      swap1\n      tag_34\n      jump\t// in\n    tag_33:\n      mload(0x40)\n      dup1\n      swap2\n      sub\n      swap1\n      revert\n    tag_32:\n        /* \"CertificadoMigracion.sol\":1481:1485  true */\n      0x01\n        /* \"CertificadoMigracion.sol\":1474:1485  return true */\n      swap2\n      pop\n      pop\n        /* \"CertificadoMigracion.sol\":924:1492  function verifyCertificate(string memory _pdfHash, bytes32[] memory _proof, bytes32 _leaf) public view returns (bool) {... */\n      swap4\n      swap3\n      pop\n      pop\n      pop\n      jump\t// out\n        /* \"CertificadoMigracion.sol\":662:853  function storeCertificate(string memory _pdfHash, bytes32 _merkleRoot, bytes memory _signature) public {... */\n    tag_14:\n        /* \"CertificadoMigracion.sol\":800:846  Certificate(_pdfHash, _merkleRoot, _signature) */\n      mload(0x40)\n      dup1\n      0x60\n      add\n      0x40\n      mstore\n      dup1\n        /* \"CertificadoMigracion.sol\":812:820  _pdfHash */\n      dup5\n        /* \"CertificadoMigracion.sol\":800:846  Certificate(_pdfHash, _merkleRoot, _signature) */\n      dup2\n      mstore\n      0x20\n      add\n        /* \"CertificadoMigracion.sol\":822:833  _merkleRoot */\n      dup4\n        /* \"CertificadoMigracion.sol\":800:846  Certificate(_pdfHash, _merkleRoot, _signature) */\n      dup2\n      mstore\n      0x20\n      add\n        /* \"CertificadoMigracion.sol\":835:845  _signature */\n      dup3\n        /* \"CertificadoMigracion.sol\":800:846  Certificate(_pdfHash, _merkleRoot, _signature) */\n      dup2\n      mstore\n      pop\n        /* \"CertificadoMigracion.sol\":775:787  certificates */\n      0x00\n        /* \"CertificadoMigracion.sol\":788:796  _pdfHash */\n      dup5\n        /* \"CertificadoMigracion.sol\":775:797  certificates[_pdfHash] */\n      mload(0x40)\n      tag_36\n      swap2\n      swap1\n      tag_18\n      jump\t// in\n    tag_36:\n      swap1\n      dup2\n      mstore\n      0x20\n      add\n      mload(0x40)\n      dup1\n      swap2\n      sub\n      swap1\n      keccak256\n        /* \"CertificadoMigracion.sol\":775:846  certificates[_pdfHash] = Certificate(_pdfHash, _merkleRoot, _signature) */\n      0x00\n      dup3\n      add\n      mload\n      dup2\n      0x00\n      add\n      swap1\n      dup2\n      tag_37\n      swap2\n      swap1\n      tag_38\n      jump\t// in\n    tag_37:\n      pop\n      0x20\n      dup3\n      add\n      mload\n      dup2\n      0x01\n      add\n      sstore\n      0x40\n      dup3\n      add\n      mload\n      dup2\n      0x02\n      add\n      swap1\n      dup2\n      tag_39\n      swap2\n      swap1\n      tag_40\n      jump\t// in\n    tag_39:\n      pop\n      swap1\n      pop\n      pop\n        /* \"CertificadoMigracion.sol\":662:853  function storeCertificate(string memory _pdfHash, bytes32 _merkleRoot, bytes memory _signature) public {... */\n      pop\n      pop\n      pop\n      jump\t// out\n        /* \"CertificadoMigracion.sol\":1570:2146  function recoverSigner(string memory _message, bytes memory _signature) internal pure returns (address) {... */\n    tag_25:\n        /* \"CertificadoMigracion.sol\":1665:1672  address */\n      0x00\n        /* \"CertificadoMigracion.sol\":1684:1693  bytes32 r */\n      dup1\n        /* \"CertificadoMigracion.sol\":1703:1712  bytes32 s */\n      0x00\n        /* \"CertificadoMigracion.sol\":1722:1729  uint8 v */\n      dup1\n        /* \"CertificadoMigracion.sol\":1839:1841  32 */\n      0x20\n        /* \"CertificadoMigracion.sol\":1827:1837  _signature */\n      dup6\n        /* \"CertificadoMigracion.sol\":1823:1842  add(_signature, 32) */\n      add\n        /* \"CertificadoMigracion.sol\":1817:1843  mload(add(_signature, 32)) */\n      mload\n        /* \"CertificadoMigracion.sol\":1812:1843  r := mload(add(_signature, 32)) */\n      swap3\n      pop\n        /* \"CertificadoMigracion.sol\":1883:1885  64 */\n      0x40\n        /* \"CertificadoMigracion.sol\":1871:1881  _signature */\n      dup6\n        /* \"CertificadoMigracion.sol\":1867:1886  add(_signature, 64) */\n      add\n        /* \"CertificadoMigracion.sol\":1861:1887  mload(add(_signature, 64)) */\n      mload\n        /* \"CertificadoMigracion.sol\":1856:1887  s := mload(add(_signature, 64)) */\n      swap2\n      pop\n        /* \"CertificadoMigracion.sol\":1935:1937  96 */\n      0x60\n        /* \"CertificadoMigracion.sol\":1923:1933  _signature */\n      dup6\n        /* \"CertificadoMigracion.sol\":1919:1938  add(_signature, 96) */\n      add\n        /* \"CertificadoMigracion.sol\":1913:1939  mload(add(_signature, 96)) */\n      mload\n        /* \"CertificadoMigracion.sol\":1910:1911  0 */\n      0x00\n        /* \"CertificadoMigracion.sol\":1905:1940  byte(0, mload(add(_signature, 96))) */\n      byte\n        /* \"CertificadoMigracion.sol\":1900:1940  v := byte(0, mload(add(_signature, 96))) */\n      swap1\n      pop\n        /* \"CertificadoMigracion.sol\":2017:2139  ecrecover(keccak256(abi.encodePacked(\"\\x19Ethereum Signed Message:\\n32\", keccak256(abi.encodePacked(_message)))), v, r, s) */\n      0x01\n        /* \"CertificadoMigracion.sol\":2117:2125  _message */\n      dup7\n        /* \"CertificadoMigracion.sol\":2100:2126  abi.encodePacked(_message) */\n      add(0x20, mload(0x40))\n      tag_42\n      swap2\n      swap1\n      tag_18\n      jump\t// in\n    tag_42:\n      mload(0x40)\n      0x20\n      dup2\n      dup4\n      sub\n      sub\n      dup2\n      mstore\n      swap1\n      0x40\n      mstore\n        /* \"CertificadoMigracion.sol\":2090:2127  keccak256(abi.encodePacked(_message)) */\n      dup1\n      mload\n      swap1\n      0x20\n      add\n      keccak256\n        /* \"CertificadoMigracion.sol\":2037:2128  abi.encodePacked(\"\\x19Ethereum Signed Message:\\n32\", keccak256(abi.encodePacked(_message))) */\n      add(0x20, mload(0x40))\n      tag_43\n      swap2\n      swap1\n      tag_44\n      jump\t// in\n    tag_43:\n      mload(0x40)\n      0x20\n      dup2\n      dup4\n      sub\n      sub\n      dup2\n      mstore\n      swap1\n      0x40\n      mstore\n        /* \"CertificadoMigracion.sol\":2027:2129  keccak256(abi.encodePacked(\"\\x19Ethereum Signed Message:\\n32\", keccak256(abi.encodePacked(_message)))) */\n      dup1\n      mload\n      swap1\n      0x20\n      add\n      keccak256\n        /* \"CertificadoMigracion.sol\":2131:2132  v */\n      dup3\n        /* \"CertificadoMigracion.sol\":2134:2135  r */\n      dup6\n        /* \"CertificadoMigracion.sol\":2137:2138  s */\n      dup6\n        /* \"CertificadoMigracion.sol\":2017:2139  ecrecover(keccak256(abi.encodePacked(\"\\x19Ethereum Signed Message:\\n32\", keccak256(abi.encodePacked(_message)))), v, r, s) */\n      mload(0x40)\n      0x00\n      dup2\n      mstore\n      0x20\n      add\n      0x40\n      mstore\n      mload(0x40)\n      tag_45\n      swap5\n      swap4\n      swap3\n      swap2\n      swap1\n      tag_46\n      jump\t// in\n    tag_45:\n      0x20\n      mload(0x40)\n      0x20\n      dup2\n      sub\n      swap1\n      dup1\n      dup5\n      sub\n      swap1\n      dup6\n      gas\n      staticcall\n      iszero\n      dup1\n      iszero\n      tag_48\n      jumpi\n      returndatasize\n      0x00\n      dup1\n      returndatacopy\n      revert(0x00, returndatasize)\n    tag_48:\n      pop\n      pop\n      pop\n      mload(sub(mload(0x40), 0x20))\n        /* \"CertificadoMigracion.sol\":2010:2139  return ecrecover(keccak256(abi.encodePacked(\"\\x19Ethereum Signed Message:\\n32\", keccak256(abi.encodePacked(_message)))), v, r, s) */\n      swap4\n      pop\n      pop\n      pop\n      pop\n        /* \"CertificadoMigracion.sol\":1570:2146  function recoverSigner(string memory _message, bytes memory _signature) internal pure returns (address) {... */\n      swap3\n      swap2\n      pop\n      pop\n      jump\t// out\n        /* \"@openzeppelin/contracts/utils/cryptography/MerkleProof.sol\":1265:1419  function verify(bytes32[] memory proof, bytes32 root, bytes32 leaf) internal pure returns (bool) {... */\n    tag_31:\n        /* \"@openzeppelin/contracts/utils/cryptography/MerkleProof.sol\":1356:1360  bool */\n      0x00\n        /* \"@openzeppelin/contracts/utils/cryptography/MerkleProof.sol\":1408:1412  root */\n      dup3\n        /* \"@openzeppelin/contracts/utils/cryptography/MerkleProof.sol\":1379:1404  processProof(proof, leaf) */\n      tag_50\n        /* \"@openzeppelin/contracts/utils/cryptography/MerkleProof.sol\":1392:1397  proof */\n      dup6\n        /* \"@openzeppelin/contracts/utils/cryptography/MerkleProof.sol\":1399:1403  leaf */\n      dup5\n        /* \"@openzeppelin/contracts/utils/cryptography/MerkleProof.sol\":1379:1391  processProof */\n      tag_51\n        /* \"@openzeppelin/contracts/utils/cryptography/MerkleProof.sol\":1379:1404  processProof(proof, leaf) */\n      jump\t// in\n    tag_50:\n        /* \"@openzeppelin/contracts/utils/cryptography/MerkleProof.sol\":1379:1412  processProof(proof, leaf) == root */\n      eq\n        /* \"@openzeppelin/contracts/utils/cryptography/MerkleProof.sol\":1372:1412  return processProof(proof, leaf) == root */\n      swap1\n      pop\n        /* \"@openzeppelin/contracts/utils/cryptography/MerkleProof.sol\":1265:1419  function verify(bytes32[] memory proof, bytes32 root, bytes32 leaf) internal pure returns (bool) {... */\n      swap4\n      swap3\n      pop\n      pop\n      pop\n      jump\t// out\n        /* \"@openzeppelin/contracts/utils/cryptography/MerkleProof.sol\":1967:2257  function processProof(bytes32[] memory proof, bytes32 leaf) internal pure returns (bytes32) {... */\n    tag_51:\n        /* \"@openzeppelin/contracts/utils/cryptography/MerkleProof.sol\":2050:2057  bytes32 */\n      0x00\n        /* \"@openzeppelin/contracts/utils/cryptography/MerkleProof.sol\":2069:2089  bytes32 computedHash */\n      dup1\n        /* \"@openzeppelin/contracts/utils/cryptography/MerkleProof.sol\":2092:2096  leaf */\n      dup3\n        /* \"@openzeppelin/contracts/utils/cryptography/MerkleProof.sol\":2069:2096  bytes32 computedHash = leaf */\n      swap1\n      pop\n        /* \"@openzeppelin/contracts/utils/cryptography/MerkleProof.sol\":2111:2120  uint256 i */\n      0x00\n        /* \"@openzeppelin/contracts/utils/cryptography/MerkleProof.sol\":2106:2222  for (uint256 i = 0; i < proof.length; i++) {... */\n    tag_53:\n        /* \"@openzeppelin/contracts/utils/cryptography/MerkleProof.sol\":2130:2135  proof */\n      dup5\n        /* \"@openzeppelin/contracts/utils/cryptography/MerkleProof.sol\":2130:2142  proof.length */\n      mload\n        /* \"@openzeppelin/contracts/utils/cryptography/MerkleProof.sol\":2126:2127  i */\n      dup2\n        /* \"@openzeppelin/contracts/utils/cryptography/MerkleProof.sol\":2126:2142  i < proof.length */\n      lt\n        /* \"@openzeppelin/contracts/utils/cryptography/MerkleProof.sol\":2106:2222  for (uint256 i = 0; i < proof.length; i++) {... */\n      iszero\n      tag_54\n      jumpi\n        /* \"@openzeppelin/contracts/utils/cryptography/MerkleProof.sol\":2178:2211  _hashPair(computedHash, proof[i]) */\n      tag_56\n        /* \"@openzeppelin/contracts/utils/cryptography/MerkleProof.sol\":2188:2200  computedHash */\n      dup3\n        /* \"@openzeppelin/contracts/utils/cryptography/MerkleProof.sol\":2202:2207  proof */\n      dup7\n        /* \"@openzeppelin/contracts/utils/cryptography/MerkleProof.sol\":2208:2209  i */\n      dup4\n        /* \"@openzeppelin/contracts/utils/cryptography/MerkleProof.sol\":2202:2210  proof[i] */\n      dup2\n      mload\n      dup2\n      lt\n      tag_57\n      jumpi\n      tag_58\n      tag_59\n      jump\t// in\n    tag_58:\n    tag_57:\n      0x20\n      mul\n      0x20\n      add\n      add\n      mload\n        /* \"@openzeppelin/contracts/utils/cryptography/MerkleProof.sol\":2178:2187  _hashPair */\n      tag_60\n        /* \"@openzeppelin/contracts/utils/cryptography/MerkleProof.sol\":2178:2211  _hashPair(computedHash, proof[i]) */\n      jump\t// in\n    tag_56:\n        /* \"@openzeppelin/contracts/utils/cryptography/MerkleProof.sol\":2163:2211  computedHash = _hashPair(computedHash, proof[i]) */\n      swap2\n      pop\n        /* \"@openzeppelin/contracts/utils/cryptography/MerkleProof.sol\":2144:2147  i++ */\n      dup1\n      dup1\n      0x01\n      add\n      swap2\n      pop\n      pop\n        /* \"@openzeppelin/contracts/utils/cryptography/MerkleProof.sol\":2106:2222  for (uint256 i = 0; i < proof.length; i++) {... */\n      jump(tag_53)\n    tag_54:\n      pop\n        /* \"@openzeppelin/contracts/utils/cryptography/MerkleProof.sol\":2238:2250  computedHash */\n      dup1\n        /* \"@openzeppelin/contracts/utils/cryptography/MerkleProof.sol\":2231:2250  return computedHash */\n      swap2\n      pop\n      pop\n        /* \"@openzeppelin/contracts/utils/cryptography/MerkleProof.sol\":1967:2257  function processProof(bytes32[] memory proof, bytes32 leaf) internal pure returns (bytes32) {... */\n      swap3\n      swap2\n      pop\n      pop\n      jump\t// out\n        /* \"@openzeppelin/contracts/utils/cryptography/MerkleProof.sol\":9229:9376  function _hashPair(bytes32 a, bytes32 b) private pure returns (bytes32) {... */\n    tag_60:\n        /* \"@openzeppelin/contracts/utils/cryptography/MerkleProof.sol\":9292:9299  bytes32 */\n      0x00\n        /* \"@openzeppelin/contracts/utils/cryptography/MerkleProof.sol\":9322:9323  b */\n      dup2\n        /* \"@openzeppelin/contracts/utils/cryptography/MerkleProof.sol\":9318:9319  a */\n      dup4\n        /* \"@openzeppelin/contracts/utils/cryptography/MerkleProof.sol\":9318:9323  a < b */\n      lt\n        /* \"@openzeppelin/contracts/utils/cryptography/MerkleProof.sol\":9318:9369  a < b ? _efficientHash(a, b) : _efficientHash(b, a) */\n      tag_62\n      jumpi\n        /* \"@openzeppelin/contracts/utils/cryptography/MerkleProof.sol\":9349:9369  _efficientHash(b, a) */\n      tag_63\n        /* \"@openzeppelin/contracts/utils/cryptography/MerkleProof.sol\":9364:9365  b */\n      dup3\n        /* \"@openzeppelin/contracts/utils/cryptography/MerkleProof.sol\":9367:9368  a */\n      dup5\n        /* \"@openzeppelin/contracts/utils/cryptography/MerkleProof.sol\":9349:9363  _efficientHash */\n      tag_64\n        /* \"@openzeppelin/contracts/utils/cryptography/MerkleProof.sol\":9349:9369  _efficientHash(b, a) */\n      jump\t// in\n    tag_63:\n        /* \"@openzeppelin/contracts/utils/cryptography/MerkleProof.sol\":9318:9369  a < b ? _efficientHash(a, b) : _efficientHash(b, a) */\n      jump(tag_65)\n    tag_62:\n        /* \"@openzeppelin/contracts/utils/cryptography/MerkleProof.sol\":9326:9346  _efficientHash(a, b) */\n      tag_66\n        /* \"@openzeppelin/contracts/utils/cryptography/MerkleProof.sol\":9341:9342  a */\n      dup4\n        /* \"@openzeppelin/contracts/utils/cryptography/MerkleProof.sol\":9344:9345  b */\n      dup4\n        /* \"@openzeppelin/contracts/utils/cryptography/MerkleProof.sol\":9326:9340  _efficientHash */\n      tag_64\n        /* \"@openzeppelin/contracts/utils/cryptography/MerkleProof.sol\":9326:9346  _efficientHash(a, b) */\n      jump\t// in\n    tag_66:\n        /* \"@openzeppelin/contracts/utils/cryptography/MerkleProof.sol\":9318:9369  a < b ? _efficientHash(a, b) : _efficientHash(b, a) */\n    tag_65:\n        /* \"@openzeppelin/contracts/utils/cryptography/MerkleProof.sol\":9311:9369  return a < b ? _efficientHash(a, b) : _efficientHash(b, a) */\n      swap1\n      pop\n        /* \"@openzeppelin/contracts/utils/cryptography/MerkleProof.sol\":9229:9376  function _hashPair(bytes32 a, bytes32 b) private pure returns (bytes32) {... */\n      swap3\n      swap2\n      pop\n      pop\n      jump\t// out\n        /* \"@openzeppelin/contracts/utils/cryptography/MerkleProof.sol\":9496:9757  function _efficientHash(bytes32 a, bytes32 b) private pure returns (bytes32 value) {... */\n    tag_64:\n        /* \"@openzeppelin/contracts/utils/cryptography/MerkleProof.sol\":9564:9577  bytes32 value */\n      0x00\n        /* \"@openzeppelin/contracts/utils/cryptography/MerkleProof.sol\":9668:9669  a */\n      dup3\n        /* \"@openzeppelin/contracts/utils/cryptography/MerkleProof.sol\":9662:9666  0x00 */\n      0x00\n        /* \"@openzeppelin/contracts/utils/cryptography/MerkleProof.sol\":9655:9670  mstore(0x00, a) */\n      mstore\n        /* \"@openzeppelin/contracts/utils/cryptography/MerkleProof.sol\":9696:9697  b */\n      dup2\n        /* \"@openzeppelin/contracts/utils/cryptography/MerkleProof.sol\":9690:9694  0x20 */\n      0x20\n        /* \"@openzeppelin/contracts/utils/cryptography/MerkleProof.sol\":9683:9698  mstore(0x20, b) */\n      mstore\n        /* \"@openzeppelin/contracts/utils/cryptography/MerkleProof.sol\":9736:9740  0x40 */\n      0x40\n        /* \"@openzeppelin/contracts/utils/cryptography/MerkleProof.sol\":9730:9734  0x00 */\n      0x00\n        /* \"@openzeppelin/contracts/utils/cryptography/MerkleProof.sol\":9720:9741  keccak256(0x00, 0x40) */\n      keccak256\n        /* \"@openzeppelin/contracts/utils/cryptography/MerkleProof.sol\":9711:9741  value := keccak256(0x00, 0x40) */\n      swap1\n      pop\n        /* \"@openzeppelin/contracts/utils/cryptography/MerkleProof.sol\":9496:9757  function _efficientHash(bytes32 a, bytes32 b) private pure returns (bytes32 value) {... */\n      swap3\n      swap2\n      pop\n      pop\n      jump\t// out\n        /* \"#utility.yul\":7:82   */\n    tag_68:\n        /* \"#utility.yul\":40:46   */\n      0x00\n        /* \"#utility.yul\":73:75   */\n      0x40\n        /* \"#utility.yul\":67:76   */\n      mload\n        /* \"#utility.yul\":57:76   */\n      swap1\n      pop\n        /* \"#utility.yul\":7:82   */\n      swap1\n      jump\t// out\n        /* \"#utility.yul\":88:205   */\n    tag_69:\n        /* \"#utility.yul\":197:198   */\n      0x00\n        /* \"#utility.yul\":194:195   */\n      dup1\n        /* \"#utility.yul\":187:199   */\n      revert\n        /* \"#utility.yul\":211:328   */\n    tag_70:\n        /* \"#utility.yul\":320:321   */\n      0x00\n        /* \"#utility.yul\":317:318   */\n      dup1\n        /* \"#utility.yul\":310:322   */\n      revert\n        /* \"#utility.yul\":334:451   */\n    tag_71:\n        /* \"#utility.yul\":443:444   */\n      0x00\n        /* \"#utility.yul\":440:441   */\n      dup1\n        /* \"#utility.yul\":433:445   */\n      revert\n        /* \"#utility.yul\":457:574   */\n    tag_72:\n        /* \"#utility.yul\":566:567   */\n      0x00\n        /* \"#utility.yul\":563:564   */\n      dup1\n        /* \"#utility.yul\":556:568   */\n      revert\n        /* \"#utility.yul\":580:682   */\n    tag_73:\n        /* \"#utility.yul\":621:627   */\n      0x00\n        /* \"#utility.yul\":672:674   */\n      0x1f\n        /* \"#utility.yul\":668:675   */\n      not\n        /* \"#utility.yul\":663:665   */\n      0x1f\n        /* \"#utility.yul\":656:661   */\n      dup4\n        /* \"#utility.yul\":652:666   */\n      add\n        /* \"#utility.yul\":648:676   */\n      and\n        /* \"#utility.yul\":638:676   */\n      swap1\n      pop\n        /* \"#utility.yul\":580:682   */\n      swap2\n      swap1\n      pop\n      jump\t// out\n        /* \"#utility.yul\":688:868   */\n    tag_74:\n        /* \"#utility.yul\":736:813   */\n      0x4e487b7100000000000000000000000000000000000000000000000000000000\n        /* \"#utility.yul\":733:734   */\n      0x00\n        /* \"#utility.yul\":726:814   */\n      mstore\n        /* \"#utility.yul\":833:837   */\n      0x41\n        /* \"#utility.yul\":830:831   */\n      0x04\n        /* \"#utility.yul\":823:838   */\n      mstore\n        /* \"#utility.yul\":857:861   */\n      0x24\n        /* \"#utility.yul\":854:855   */\n      0x00\n        /* \"#utility.yul\":847:862   */\n      revert\n        /* \"#utility.yul\":874:1155   */\n    tag_75:\n        /* \"#utility.yul\":957:984   */\n      tag_138\n        /* \"#utility.yul\":979:983   */\n      dup3\n        /* \"#utility.yul\":957:984   */\n      tag_73\n      jump\t// in\n    tag_138:\n        /* \"#utility.yul\":949:955   */\n      dup2\n        /* \"#utility.yul\":945:985   */\n      add\n        /* \"#utility.yul\":1087:1093   */\n      dup2\n        /* \"#utility.yul\":1075:1085   */\n      dup2\n        /* \"#utility.yul\":1072:1094   */\n      lt\n        /* \"#utility.yul\":1051:1069   */\n      0xffffffffffffffff\n        /* \"#utility.yul\":1039:1049   */\n      dup3\n        /* \"#utility.yul\":1036:1070   */\n      gt\n        /* \"#utility.yul\":1033:1095   */\n      or\n        /* \"#utility.yul\":1030:1118   */\n      iszero\n      tag_139\n      jumpi\n        /* \"#utility.yul\":1098:1116   */\n      tag_140\n      tag_74\n      jump\t// in\n    tag_140:\n        /* \"#utility.yul\":1030:1118   */\n    tag_139:\n        /* \"#utility.yul\":1138:1148   */\n      dup1\n        /* \"#utility.yul\":1134:1136   */\n      0x40\n        /* \"#utility.yul\":1127:1149   */\n      mstore\n        /* \"#utility.yul\":917:1155   */\n      pop\n        /* \"#utility.yul\":874:1155   */\n      pop\n      pop\n      jump\t// out\n        /* \"#utility.yul\":1161:1290   */\n    tag_76:\n        /* \"#utility.yul\":1195:1201   */\n      0x00\n        /* \"#utility.yul\":1222:1242   */\n      tag_142\n      tag_68\n      jump\t// in\n    tag_142:\n        /* \"#utility.yul\":1212:1242   */\n      swap1\n      pop\n        /* \"#utility.yul\":1251:1284   */\n      tag_143\n        /* \"#utility.yul\":1279:1283   */\n      dup3\n        /* \"#utility.yul\":1271:1277   */\n      dup3\n        /* \"#utility.yul\":1251:1284   */\n      tag_75\n      jump\t// in\n    tag_143:\n        /* \"#utility.yul\":1161:1290   */\n      swap2\n      swap1\n      pop\n      jump\t// out\n        /* \"#utility.yul\":1296:1604   */\n    tag_77:\n        /* \"#utility.yul\":1358:1362   */\n      0x00\n        /* \"#utility.yul\":1448:1466   */\n      0xffffffffffffffff\n        /* \"#utility.yul\":1440:1446   */\n      dup3\n        /* \"#utility.yul\":1437:1467   */\n      gt\n        /* \"#utility.yul\":1434:1490   */\n      iszero\n      tag_145\n      jumpi\n        /* \"#utility.yul\":1470:1488   */\n      tag_146\n      tag_74\n      jump\t// in\n    tag_146:\n        /* \"#utility.yul\":1434:1490   */\n    tag_145:\n        /* \"#utility.yul\":1508:1537   */\n      tag_147\n        /* \"#utility.yul\":1530:1536   */\n      dup3\n        /* \"#utility.yul\":1508:1537   */\n      tag_73\n      jump\t// in\n    tag_147:\n        /* \"#utility.yul\":1500:1537   */\n      swap1\n      pop\n        /* \"#utility.yul\":1592:1596   */\n      0x20\n        /* \"#utility.yul\":1586:1590   */\n      dup2\n        /* \"#utility.yul\":1582:1597   */\n      add\n        /* \"#utility.yul\":1574:1597   */\n      swap1\n      pop\n        /* \"#utility.yul\":1296:1604   */\n      swap2\n      swap1\n      pop\n      jump\t// out\n        /* \"#utility.yul\":1610:1758   */\n    tag_78:\n        /* \"#utility.yul\":1708:1714   */\n      dup3\n        /* \"#utility.yul\":1703:1706   */\n      dup2\n        /* \"#utility.yul\":1698:1701   */\n      dup4\n        /* \"#utility.yul\":1685:1715   */\n      calldatacopy\n        /* \"#utility.yul\":1749:1750   */\n      0x00\n        /* \"#utility.yul\":1740:1746   */\n      dup4\n        /* \"#utility.yul\":1735:1738   */\n      dup4\n        /* \"#utility.yul\":1731:1747   */\n      add\n        /* \"#utility.yul\":1724:1751   */\n      mstore\n        /* \"#utility.yul\":1610:1758   */\n      pop\n      pop\n      pop\n      jump\t// out\n        /* \"#utility.yul\":1764:2189   */\n    tag_79:\n        /* \"#utility.yul\":1842:1847   */\n      0x00\n        /* \"#utility.yul\":1867:1933   */\n      tag_150\n        /* \"#utility.yul\":1883:1932   */\n      tag_151\n        /* \"#utility.yul\":1925:1931   */\n      dup5\n        /* \"#utility.yul\":1883:1932   */\n      tag_77\n      jump\t// in\n    tag_151:\n        /* \"#utility.yul\":1867:1933   */\n      tag_76\n      jump\t// in\n    tag_150:\n        /* \"#utility.yul\":1858:1933   */\n      swap1\n      pop\n        /* \"#utility.yul\":1956:1962   */\n      dup3\n        /* \"#utility.yul\":1949:1954   */\n      dup2\n        /* \"#utility.yul\":1942:1963   */\n      mstore\n        /* \"#utility.yul\":1994:1998   */\n      0x20\n        /* \"#utility.yul\":1987:1992   */\n      dup2\n        /* \"#utility.yul\":1983:1999   */\n      add\n        /* \"#utility.yul\":2032:2035   */\n      dup5\n        /* \"#utility.yul\":2023:2029   */\n      dup5\n        /* \"#utility.yul\":2018:2021   */\n      dup5\n        /* \"#utility.yul\":2014:2030   */\n      add\n        /* \"#utility.yul\":2011:2036   */\n      gt\n        /* \"#utility.yul\":2008:2120   */\n      iszero\n      tag_152\n      jumpi\n        /* \"#utility.yul\":2039:2118   */\n      tag_153\n      tag_72\n      jump\t// in\n    tag_153:\n        /* \"#utility.yul\":2008:2120   */\n    tag_152:\n        /* \"#utility.yul\":2129:2183   */\n      tag_154\n        /* \"#utility.yul\":2176:2182   */\n      dup5\n        /* \"#utility.yul\":2171:2174   */\n      dup3\n        /* \"#utility.yul\":2166:2169   */\n      dup6\n        /* \"#utility.yul\":2129:2183   */\n      tag_78\n      jump\t// in\n    tag_154:\n        /* \"#utility.yul\":1848:2189   */\n      pop\n        /* \"#utility.yul\":1764:2189   */\n      swap4\n      swap3\n      pop\n      pop\n      pop\n      jump\t// out\n        /* \"#utility.yul\":2209:2549   */\n    tag_80:\n        /* \"#utility.yul\":2265:2270   */\n      0x00\n        /* \"#utility.yul\":2314:2317   */\n      dup3\n        /* \"#utility.yul\":2307:2311   */\n      0x1f\n        /* \"#utility.yul\":2299:2305   */\n      dup4\n        /* \"#utility.yul\":2295:2312   */\n      add\n        /* \"#utility.yul\":2291:2318   */\n      slt\n        /* \"#utility.yul\":2281:2403   */\n      tag_156\n      jumpi\n        /* \"#utility.yul\":2322:2401   */\n      tag_157\n      tag_71\n      jump\t// in\n    tag_157:\n        /* \"#utility.yul\":2281:2403   */\n    tag_156:\n        /* \"#utility.yul\":2439:2445   */\n      dup2\n        /* \"#utility.yul\":2426:2446   */\n      calldataload\n        /* \"#utility.yul\":2464:2543   */\n      tag_158\n        /* \"#utility.yul\":2539:2542   */\n      dup5\n        /* \"#utility.yul\":2531:2537   */\n      dup3\n        /* \"#utility.yul\":2524:2528   */\n      0x20\n        /* \"#utility.yul\":2516:2522   */\n      dup7\n        /* \"#utility.yul\":2512:2529   */\n      add\n        /* \"#utility.yul\":2464:2543   */\n      tag_79\n      jump\t// in\n    tag_158:\n        /* \"#utility.yul\":2455:2543   */\n      swap2\n      pop\n        /* \"#utility.yul\":2271:2549   */\n      pop\n        /* \"#utility.yul\":2209:2549   */\n      swap3\n      swap2\n      pop\n      pop\n      jump\t// out\n        /* \"#utility.yul\":2555:2866   */\n    tag_81:\n        /* \"#utility.yul\":2632:2636   */\n      0x00\n        /* \"#utility.yul\":2722:2740   */\n      0xffffffffffffffff\n        /* \"#utility.yul\":2714:2720   */\n      dup3\n        /* \"#utility.yul\":2711:2741   */\n      gt\n        /* \"#utility.yul\":2708:2764   */\n      iszero\n      tag_160\n      jumpi\n        /* \"#utility.yul\":2744:2762   */\n      tag_161\n      tag_74\n      jump\t// in\n    tag_161:\n        /* \"#utility.yul\":2708:2764   */\n    tag_160:\n        /* \"#utility.yul\":2794:2798   */\n      0x20\n        /* \"#utility.yul\":2786:2792   */\n      dup3\n        /* \"#utility.yul\":2782:2799   */\n      mul\n        /* \"#utility.yul\":2774:2799   */\n      swap1\n      pop\n        /* \"#utility.yul\":2854:2858   */\n      0x20\n        /* \"#utility.yul\":2848:2852   */\n      dup2\n        /* \"#utility.yul\":2844:2859   */\n      add\n        /* \"#utility.yul\":2836:2859   */\n      swap1\n      pop\n        /* \"#utility.yul\":2555:2866   */\n      swap2\n      swap1\n      pop\n      jump\t// out\n        /* \"#utility.yul\":2872:2989   */\n    tag_82:\n        /* \"#utility.yul\":2981:2982   */\n      0x00\n        /* \"#utility.yul\":2978:2979   */\n      dup1\n        /* \"#utility.yul\":2971:2983   */\n      revert\n        /* \"#utility.yul\":2995:3072   */\n    tag_83:\n        /* \"#utility.yul\":3032:3039   */\n      0x00\n        /* \"#utility.yul\":3061:3066   */\n      dup2\n        /* \"#utility.yul\":3050:3066   */\n      swap1\n      pop\n        /* \"#utility.yul\":2995:3072   */\n      swap2\n      swap1\n      pop\n      jump\t// out\n        /* \"#utility.yul\":3078:3200   */\n    tag_84:\n        /* \"#utility.yul\":3151:3175   */\n      tag_165\n        /* \"#utility.yul\":3169:3174   */\n      dup2\n        /* \"#utility.yul\":3151:3175   */\n      tag_83\n      jump\t// in\n    tag_165:\n        /* \"#utility.yul\":3144:3149   */\n      dup2\n        /* \"#utility.yul\":3141:3176   */\n      eq\n        /* \"#utility.yul\":3131:3194   */\n      tag_166\n      jumpi\n        /* \"#utility.yul\":3190:3191   */\n      0x00\n        /* \"#utility.yul\":3187:3188   */\n      dup1\n        /* \"#utility.yul\":3180:3192   */\n      revert\n        /* \"#utility.yul\":3131:3194   */\n    tag_166:\n        /* \"#utility.yul\":3078:3200   */\n      pop\n      jump\t// out\n        /* \"#utility.yul\":3206:3345   */\n    tag_85:\n        /* \"#utility.yul\":3252:3257   */\n      0x00\n        /* \"#utility.yul\":3290:3296   */\n      dup2\n        /* \"#utility.yul\":3277:3297   */\n      calldataload\n        /* \"#utility.yul\":3268:3297   */\n      swap1\n      pop\n        /* \"#utility.yul\":3306:3339   */\n      tag_168\n        /* \"#utility.yul\":3333:3338   */\n      dup2\n        /* \"#utility.yul\":3306:3339   */\n      tag_84\n      jump\t// in\n    tag_168:\n        /* \"#utility.yul\":3206:3345   */\n      swap3\n      swap2\n      pop\n      pop\n      jump\t// out\n        /* \"#utility.yul\":3368:4078   */\n    tag_86:\n        /* \"#utility.yul\":3464:3469   */\n      0x00\n        /* \"#utility.yul\":3489:3570   */\n      tag_170\n        /* \"#utility.yul\":3505:3569   */\n      tag_171\n        /* \"#utility.yul\":3562:3568   */\n      dup5\n        /* \"#utility.yul\":3505:3569   */\n      tag_81\n      jump\t// in\n    tag_171:\n        /* \"#utility.yul\":3489:3570   */\n      tag_76\n      jump\t// in\n    tag_170:\n        /* \"#utility.yul\":3480:3570   */\n      swap1\n      pop\n        /* \"#utility.yul\":3590:3595   */\n      dup1\n        /* \"#utility.yul\":3619:3625   */\n      dup4\n        /* \"#utility.yul\":3612:3617   */\n      dup3\n        /* \"#utility.yul\":3605:3626   */\n      mstore\n        /* \"#utility.yul\":3653:3657   */\n      0x20\n        /* \"#utility.yul\":3646:3651   */\n      dup3\n        /* \"#utility.yul\":3642:3658   */\n      add\n        /* \"#utility.yul\":3635:3658   */\n      swap1\n      pop\n        /* \"#utility.yul\":3706:3710   */\n      0x20\n        /* \"#utility.yul\":3698:3704   */\n      dup5\n        /* \"#utility.yul\":3694:3711   */\n      mul\n        /* \"#utility.yul\":3686:3692   */\n      dup4\n        /* \"#utility.yul\":3682:3712   */\n      add\n        /* \"#utility.yul\":3735:3738   */\n      dup6\n        /* \"#utility.yul\":3727:3733   */\n      dup2\n        /* \"#utility.yul\":3724:3739   */\n      gt\n        /* \"#utility.yul\":3721:3843   */\n      iszero\n      tag_172\n      jumpi\n        /* \"#utility.yul\":3754:3833   */\n      tag_173\n      tag_82\n      jump\t// in\n    tag_173:\n        /* \"#utility.yul\":3721:3843   */\n    tag_172:\n        /* \"#utility.yul\":3869:3875   */\n      dup4\n        /* \"#utility.yul\":3852:4072   */\n    tag_174:\n        /* \"#utility.yul\":3886:3892   */\n      dup2\n        /* \"#utility.yul\":3881:3884   */\n      dup2\n        /* \"#utility.yul\":3878:3893   */\n      lt\n        /* \"#utility.yul\":3852:4072   */\n      iszero\n      tag_176\n      jumpi\n        /* \"#utility.yul\":3961:3964   */\n      dup1\n        /* \"#utility.yul\":3990:4027   */\n      tag_177\n        /* \"#utility.yul\":4023:4026   */\n      dup9\n        /* \"#utility.yul\":4011:4021   */\n      dup3\n        /* \"#utility.yul\":3990:4027   */\n      tag_85\n      jump\t// in\n    tag_177:\n        /* \"#utility.yul\":3985:3988   */\n      dup5\n        /* \"#utility.yul\":3978:4028   */\n      mstore\n        /* \"#utility.yul\":4057:4061   */\n      0x20\n        /* \"#utility.yul\":4052:4055   */\n      dup5\n        /* \"#utility.yul\":4048:4062   */\n      add\n        /* \"#utility.yul\":4041:4062   */\n      swap4\n      pop\n        /* \"#utility.yul\":3928:4072   */\n      pop\n        /* \"#utility.yul\":3912:3916   */\n      0x20\n        /* \"#utility.yul\":3907:3910   */\n      dup2\n        /* \"#utility.yul\":3903:3917   */\n      add\n        /* \"#utility.yul\":3896:3917   */\n      swap1\n      pop\n        /* \"#utility.yul\":3852:4072   */\n      jump(tag_174)\n    tag_176:\n        /* \"#utility.yul\":3856:3877   */\n      pop\n        /* \"#utility.yul\":3470:4078   */\n      pop\n      pop\n        /* \"#utility.yul\":3368:4078   */\n      swap4\n      swap3\n      pop\n      pop\n      pop\n      jump\t// out\n        /* \"#utility.yul\":4101:4471   */\n    tag_87:\n        /* \"#utility.yul\":4172:4177   */\n      0x00\n        /* \"#utility.yul\":4221:4224   */\n      dup3\n        /* \"#utility.yul\":4214:4218   */\n      0x1f\n        /* \"#utility.yul\":4206:4212   */\n      dup4\n        /* \"#utility.yul\":4202:4219   */\n      add\n        /* \"#utility.yul\":4198:4225   */\n      slt\n        /* \"#utility.yul\":4188:4310   */\n      tag_179\n      jumpi\n        /* \"#utility.yul\":4229:4308   */\n      tag_180\n      tag_71\n      jump\t// in\n    tag_180:\n        /* \"#utility.yul\":4188:4310   */\n    tag_179:\n        /* \"#utility.yul\":4346:4352   */\n      dup2\n        /* \"#utility.yul\":4333:4353   */\n      calldataload\n        /* \"#utility.yul\":4371:4465   */\n      tag_181\n        /* \"#utility.yul\":4461:4464   */\n      dup5\n        /* \"#utility.yul\":4453:4459   */\n      dup3\n        /* \"#utility.yul\":4446:4450   */\n      0x20\n        /* \"#utility.yul\":4438:4444   */\n      dup7\n        /* \"#utility.yul\":4434:4451   */\n      add\n        /* \"#utility.yul\":4371:4465   */\n      tag_86\n      jump\t// in\n    tag_181:\n        /* \"#utility.yul\":4362:4465   */\n      swap2\n      pop\n        /* \"#utility.yul\":4178:4471   */\n      pop\n        /* \"#utility.yul\":4101:4471   */\n      swap3\n      swap2\n      pop\n      pop\n      jump\t// out\n        /* \"#utility.yul\":4477:5486   */\n    tag_7:\n        /* \"#utility.yul\":4589:4595   */\n      0x00\n        /* \"#utility.yul\":4597:4603   */\n      dup1\n        /* \"#utility.yul\":4605:4611   */\n      0x00\n        /* \"#utility.yul\":4654:4656   */\n      0x60\n        /* \"#utility.yul\":4642:4651   */\n      dup5\n        /* \"#utility.yul\":4633:4640   */\n      dup7\n        /* \"#utility.yul\":4629:4652   */\n      sub\n        /* \"#utility.yul\":4625:4657   */\n      slt\n        /* \"#utility.yul\":4622:4741   */\n      iszero\n      tag_183\n      jumpi\n        /* \"#utility.yul\":4660:4739   */\n      tag_184\n      tag_69\n      jump\t// in\n    tag_184:\n        /* \"#utility.yul\":4622:4741   */\n    tag_183:\n        /* \"#utility.yul\":4808:4809   */\n      0x00\n        /* \"#utility.yul\":4797:4806   */\n      dup5\n        /* \"#utility.yul\":4793:4810   */\n      add\n        /* \"#utility.yul\":4780:4811   */\n      calldataload\n        /* \"#utility.yul\":4838:4856   */\n      0xffffffffffffffff\n        /* \"#utility.yul\":4830:4836   */\n      dup2\n        /* \"#utility.yul\":4827:4857   */\n      gt\n        /* \"#utility.yul\":4824:4941   */\n      iszero\n      tag_185\n      jumpi\n        /* \"#utility.yul\":4860:4939   */\n      tag_186\n      tag_70\n      jump\t// in\n    tag_186:\n        /* \"#utility.yul\":4824:4941   */\n    tag_185:\n        /* \"#utility.yul\":4965:5028   */\n      tag_187\n        /* \"#utility.yul\":5020:5027   */\n      dup7\n        /* \"#utility.yul\":5011:5017   */\n      dup3\n        /* \"#utility.yul\":5000:5009   */\n      dup8\n        /* \"#utility.yul\":4996:5018   */\n      add\n        /* \"#utility.yul\":4965:5028   */\n      tag_80\n      jump\t// in\n    tag_187:\n        /* \"#utility.yul\":4955:5028   */\n      swap4\n      pop\n        /* \"#utility.yul\":4751:5038   */\n      pop\n        /* \"#utility.yul\":5105:5107   */\n      0x20\n        /* \"#utility.yul\":5094:5103   */\n      dup5\n        /* \"#utility.yul\":5090:5108   */\n      add\n        /* \"#utility.yul\":5077:5109   */\n      calldataload\n        /* \"#utility.yul\":5136:5154   */\n      0xffffffffffffffff\n        /* \"#utility.yul\":5128:5134   */\n      dup2\n        /* \"#utility.yul\":5125:5155   */\n      gt\n        /* \"#utility.yul\":5122:5239   */\n      iszero\n      tag_188\n      jumpi\n        /* \"#utility.yul\":5158:5237   */\n      tag_189\n      tag_70\n      jump\t// in\n    tag_189:\n        /* \"#utility.yul\":5122:5239   */\n    tag_188:\n        /* \"#utility.yul\":5263:5341   */\n      tag_190\n        /* \"#utility.yul\":5333:5340   */\n      dup7\n        /* \"#utility.yul\":5324:5330   */\n      dup3\n        /* \"#utility.yul\":5313:5322   */\n      dup8\n        /* \"#utility.yul\":5309:5331   */\n      add\n        /* \"#utility.yul\":5263:5341   */\n      tag_87\n      jump\t// in\n    tag_190:\n        /* \"#utility.yul\":5253:5341   */\n      swap3\n      pop\n        /* \"#utility.yul\":5048:5351   */\n      pop\n        /* \"#utility.yul\":5390:5392   */\n      0x40\n        /* \"#utility.yul\":5416:5469   */\n      tag_191\n        /* \"#utility.yul\":5461:5468   */\n      dup7\n        /* \"#utility.yul\":5452:5458   */\n      dup3\n        /* \"#utility.yul\":5441:5450   */\n      dup8\n        /* \"#utility.yul\":5437:5459   */\n      add\n        /* \"#utility.yul\":5416:5469   */\n      tag_85\n      jump\t// in\n    tag_191:\n        /* \"#utility.yul\":5406:5469   */\n      swap2\n      pop\n        /* \"#utility.yul\":5361:5479   */\n      pop\n        /* \"#utility.yul\":4477:5486   */\n      swap3\n      pop\n      swap3\n      pop\n      swap3\n      jump\t// out\n        /* \"#utility.yul\":5492:5582   */\n    tag_88:\n        /* \"#utility.yul\":5526:5533   */\n      0x00\n        /* \"#utility.yul\":5569:5574   */\n      dup2\n        /* \"#utility.yul\":5562:5575   */\n      iszero\n        /* \"#utility.yul\":5555:5576   */\n      iszero\n        /* \"#utility.yul\":5544:5576   */\n      swap1\n      pop\n        /* \"#utility.yul\":5492:5582   */\n      swap2\n      swap1\n      pop\n      jump\t// out\n        /* \"#utility.yul\":5588:5697   */\n    tag_89:\n        /* \"#utility.yul\":5669:5690   */\n      tag_194\n        /* \"#utility.yul\":5684:5689   */\n      dup2\n        /* \"#utility.yul\":5669:5690   */\n      tag_88\n      jump\t// in\n    tag_194:\n        /* \"#utility.yul\":5664:5667   */\n      dup3\n        /* \"#utility.yul\":5657:5691   */\n      mstore\n        /* \"#utility.yul\":5588:5697   */\n      pop\n      pop\n      jump\t// out\n        /* \"#utility.yul\":5703:5913   */\n    tag_10:\n        /* \"#utility.yul\":5790:5794   */\n      0x00\n        /* \"#utility.yul\":5828:5830   */\n      0x20\n        /* \"#utility.yul\":5817:5826   */\n      dup3\n        /* \"#utility.yul\":5813:5831   */\n      add\n        /* \"#utility.yul\":5805:5831   */\n      swap1\n      pop\n        /* \"#utility.yul\":5841:5906   */\n      tag_196\n        /* \"#utility.yul\":5903:5904   */\n      0x00\n        /* \"#utility.yul\":5892:5901   */\n      dup4\n        /* \"#utility.yul\":5888:5905   */\n      add\n        /* \"#utility.yul\":5879:5885   */\n      dup5\n        /* \"#utility.yul\":5841:5906   */\n      tag_89\n      jump\t// in\n    tag_196:\n        /* \"#utility.yul\":5703:5913   */\n      swap3\n      swap2\n      pop\n      pop\n      jump\t// out\n        /* \"#utility.yul\":5919:6226   */\n    tag_90:\n        /* \"#utility.yul\":5980:5984   */\n      0x00\n        /* \"#utility.yul\":6070:6088   */\n      0xffffffffffffffff\n        /* \"#utility.yul\":6062:6068   */\n      dup3\n        /* \"#utility.yul\":6059:6089   */\n      gt\n        /* \"#utility.yul\":6056:6112   */\n      iszero\n      tag_198\n      jumpi\n        /* \"#utility.yul\":6092:6110   */\n      tag_199\n      tag_74\n      jump\t// in\n    tag_199:\n        /* \"#utility.yul\":6056:6112   */\n    tag_198:\n        /* \"#utility.yul\":6130:6159   */\n      tag_200\n        /* \"#utility.yul\":6152:6158   */\n      dup3\n        /* \"#utility.yul\":6130:6159   */\n      tag_73\n      jump\t// in\n    tag_200:\n        /* \"#utility.yul\":6122:6159   */\n      swap1\n      pop\n        /* \"#utility.yul\":6214:6218   */\n      0x20\n        /* \"#utility.yul\":6208:6212   */\n      dup2\n        /* \"#utility.yul\":6204:6219   */\n      add\n        /* \"#utility.yul\":6196:6219   */\n      swap1\n      pop\n        /* \"#utility.yul\":5919:6226   */\n      swap2\n      swap1\n      pop\n      jump\t// out\n        /* \"#utility.yul\":6232:6655   */\n    tag_91:\n        /* \"#utility.yul\":6309:6314   */\n      0x00\n        /* \"#utility.yul\":6334:6399   */\n      tag_202\n        /* \"#utility.yul\":6350:6398   */\n      tag_203\n        /* \"#utility.yul\":6391:6397   */\n      dup5\n        /* \"#utility.yul\":6350:6398   */\n      tag_90\n      jump\t// in\n    tag_203:\n        /* \"#utility.yul\":6334:6399   */\n      tag_76\n      jump\t// in\n    tag_202:\n        /* \"#utility.yul\":6325:6399   */\n      swap1\n      pop\n        /* \"#utility.yul\":6422:6428   */\n      dup3\n        /* \"#utility.yul\":6415:6420   */\n      dup2\n        /* \"#utility.yul\":6408:6429   */\n      mstore\n        /* \"#utility.yul\":6460:6464   */\n      0x20\n        /* \"#utility.yul\":6453:6458   */\n      dup2\n        /* \"#utility.yul\":6449:6465   */\n      add\n        /* \"#utility.yul\":6498:6501   */\n      dup5\n        /* \"#utility.yul\":6489:6495   */\n      dup5\n        /* \"#utility.yul\":6484:6487   */\n      dup5\n        /* \"#utility.yul\":6480:6496   */\n      add\n        /* \"#utility.yul\":6477:6502   */\n      gt\n        /* \"#utility.yul\":6474:6586   */\n      iszero\n      tag_204\n      jumpi\n        /* \"#utility.yul\":6505:6584   */\n      tag_205\n      tag_72\n      jump\t// in\n    tag_205:\n        /* \"#utility.yul\":6474:6586   */\n    tag_204:\n        /* \"#utility.yul\":6595:6649   */\n      tag_206\n        /* \"#utility.yul\":6642:6648   */\n      dup5\n        /* \"#utility.yul\":6637:6640   */\n      dup3\n        /* \"#utility.yul\":6632:6635   */\n      dup6\n        /* \"#utility.yul\":6595:6649   */\n      tag_78\n      jump\t// in\n    tag_206:\n        /* \"#utility.yul\":6315:6655   */\n      pop\n        /* \"#utility.yul\":6232:6655   */\n      swap4\n      swap3\n      pop\n      pop\n      pop\n      jump\t// out\n        /* \"#utility.yul\":6674:7012   */\n    tag_92:\n        /* \"#utility.yul\":6729:6734   */\n      0x00\n        /* \"#utility.yul\":6778:6781   */\n      dup3\n        /* \"#utility.yul\":6771:6775   */\n      0x1f\n        /* \"#utility.yul\":6763:6769   */\n      dup4\n        /* \"#utility.yul\":6759:6776   */\n      add\n        /* \"#utility.yul\":6755:6782   */\n      slt\n        /* \"#utility.yul\":6745:6867   */\n      tag_208\n      jumpi\n        /* \"#utility.yul\":6786:6865   */\n      tag_209\n      tag_71\n      jump\t// in\n    tag_209:\n        /* \"#utility.yul\":6745:6867   */\n    tag_208:\n        /* \"#utility.yul\":6903:6909   */\n      dup2\n        /* \"#utility.yul\":6890:6910   */\n      calldataload\n        /* \"#utility.yul\":6928:7006   */\n      tag_210\n        /* \"#utility.yul\":7002:7005   */\n      dup5\n        /* \"#utility.yul\":6994:7000   */\n      dup3\n        /* \"#utility.yul\":6987:6991   */\n      0x20\n        /* \"#utility.yul\":6979:6985   */\n      dup7\n        /* \"#utility.yul\":6975:6992   */\n      add\n        /* \"#utility.yul\":6928:7006   */\n      tag_91\n      jump\t// in\n    tag_210:\n        /* \"#utility.yul\":6919:7006   */\n      swap2\n      pop\n        /* \"#utility.yul\":6735:7012   */\n      pop\n        /* \"#utility.yul\":6674:7012   */\n      swap3\n      swap2\n      pop\n      pop\n      jump\t// out\n        /* \"#utility.yul\":7018:7995   */\n    tag_13:\n        /* \"#utility.yul\":7114:7120   */\n      0x00\n        /* \"#utility.yul\":7122:7128   */\n      dup1\n        /* \"#utility.yul\":7130:7136   */\n      0x00\n        /* \"#utility.yul\":7179:7181   */\n      0x60\n        /* \"#utility.yul\":7167:7176   */\n      dup5\n        /* \"#utility.yul\":7158:7165   */\n      dup7\n        /* \"#utility.yul\":7154:7177   */\n      sub\n        /* \"#utility.yul\":7150:7182   */\n      slt\n        /* \"#utility.yul\":7147:7266   */\n      iszero\n      tag_212\n      jumpi\n        /* \"#utility.yul\":7185:7264   */\n      tag_213\n      tag_69\n      jump\t// in\n    tag_213:\n        /* \"#utility.yul\":7147:7266   */\n    tag_212:\n        /* \"#utility.yul\":7333:7334   */\n      0x00\n        /* \"#utility.yul\":7322:7331   */\n      dup5\n        /* \"#utility.yul\":7318:7335   */\n      add\n        /* \"#utility.yul\":7305:7336   */\n      calldataload\n        /* \"#utility.yul\":7363:7381   */\n      0xffffffffffffffff\n        /* \"#utility.yul\":7355:7361   */\n      dup2\n        /* \"#utility.yul\":7352:7382   */\n      gt\n        /* \"#utility.yul\":7349:7466   */\n      iszero\n      tag_214\n      jumpi\n        /* \"#utility.yul\":7385:7464   */\n      tag_215\n      tag_70\n      jump\t// in\n    tag_215:\n        /* \"#utility.yul\":7349:7466   */\n    tag_214:\n        /* \"#utility.yul\":7490:7553   */\n      tag_216\n        /* \"#utility.yul\":7545:7552   */\n      dup7\n        /* \"#utility.yul\":7536:7542   */\n      dup3\n        /* \"#utility.yul\":7525:7534   */\n      dup8\n        /* \"#utility.yul\":7521:7543   */\n      add\n        /* \"#utility.yul\":7490:7553   */\n      tag_80\n      jump\t// in\n    tag_216:\n        /* \"#utility.yul\":7480:7553   */\n      swap4\n      pop\n        /* \"#utility.yul\":7276:7563   */\n      pop\n        /* \"#utility.yul\":7602:7604   */\n      0x20\n        /* \"#utility.yul\":7628:7681   */\n      tag_217\n        /* \"#utility.yul\":7673:7680   */\n      dup7\n        /* \"#utility.yul\":7664:7670   */\n      dup3\n        /* \"#utility.yul\":7653:7662   */\n      dup8\n        /* \"#utility.yul\":7649:7671   */\n      add\n        /* \"#utility.yul\":7628:7681   */\n      tag_85\n      jump\t// in\n    tag_217:\n        /* \"#utility.yul\":7618:7681   */\n      swap3\n      pop\n        /* \"#utility.yul\":7573:7691   */\n      pop\n        /* \"#utility.yul\":7758:7760   */\n      0x40\n        /* \"#utility.yul\":7747:7756   */\n      dup5\n        /* \"#utility.yul\":7743:7761   */\n      add\n        /* \"#utility.yul\":7730:7762   */\n      calldataload\n        /* \"#utility.yul\":7789:7807   */\n      0xffffffffffffffff\n        /* \"#utility.yul\":7781:7787   */\n      dup2\n        /* \"#utility.yul\":7778:7808   */\n      gt\n        /* \"#utility.yul\":7775:7892   */\n      iszero\n      tag_218\n      jumpi\n        /* \"#utility.yul\":7811:7890   */\n      tag_219\n      tag_70\n      jump\t// in\n    tag_219:\n        /* \"#utility.yul\":7775:7892   */\n    tag_218:\n        /* \"#utility.yul\":7916:7978   */\n      tag_220\n        /* \"#utility.yul\":7970:7977   */\n      dup7\n        /* \"#utility.yul\":7961:7967   */\n      dup3\n        /* \"#utility.yul\":7950:7959   */\n      dup8\n        /* \"#utility.yul\":7946:7968   */\n      add\n        /* \"#utility.yul\":7916:7978   */\n      tag_92\n      jump\t// in\n    tag_220:\n        /* \"#utility.yul\":7906:7978   */\n      swap2\n      pop\n        /* \"#utility.yul\":7701:7988   */\n      pop\n        /* \"#utility.yul\":7018:7995   */\n      swap3\n      pop\n      swap3\n      pop\n      swap3\n      jump\t// out\n        /* \"#utility.yul\":8001:8100   */\n    tag_93:\n        /* \"#utility.yul\":8053:8059   */\n      0x00\n        /* \"#utility.yul\":8087:8092   */\n      dup2\n        /* \"#utility.yul\":8081:8093   */\n      mload\n        /* \"#utility.yul\":8071:8093   */\n      swap1\n      pop\n        /* \"#utility.yul\":8001:8100   */\n      swap2\n      swap1\n      pop\n      jump\t// out\n        /* \"#utility.yul\":8106:8254   */\n    tag_94:\n        /* \"#utility.yul\":8208:8219   */\n      0x00\n        /* \"#utility.yul\":8245:8248   */\n      dup2\n        /* \"#utility.yul\":8230:8248   */\n      swap1\n      pop\n        /* \"#utility.yul\":8106:8254   */\n      swap3\n      swap2\n      pop\n      pop\n      jump\t// out\n        /* \"#utility.yul\":8260:8399   */\n    tag_95:\n        /* \"#utility.yul\":8349:8355   */\n      dup3\n        /* \"#utility.yul\":8344:8347   */\n      dup2\n        /* \"#utility.yul\":8339:8342   */\n      dup4\n        /* \"#utility.yul\":8333:8356   */\n      mcopy\n        /* \"#utility.yul\":8390:8391   */\n      0x00\n        /* \"#utility.yul\":8381:8387   */\n      dup4\n        /* \"#utility.yul\":8376:8379   */\n      dup4\n        /* \"#utility.yul\":8372:8388   */\n      add\n        /* \"#utility.yul\":8365:8392   */\n      mstore\n        /* \"#utility.yul\":8260:8399   */\n      pop\n      pop\n      pop\n      jump\t// out\n        /* \"#utility.yul\":8405:8795   */\n    tag_96:\n        /* \"#utility.yul\":8511:8514   */\n      0x00\n        /* \"#utility.yul\":8539:8578   */\n      tag_225\n        /* \"#utility.yul\":8572:8577   */\n      dup3\n        /* \"#utility.yul\":8539:8578   */\n      tag_93\n      jump\t// in\n    tag_225:\n        /* \"#utility.yul\":8594:8683   */\n      tag_226\n        /* \"#utility.yul\":8676:8682   */\n      dup2\n        /* \"#utility.yul\":8671:8674   */\n      dup6\n        /* \"#utility.yul\":8594:8683   */\n      tag_94\n      jump\t// in\n    tag_226:\n        /* \"#utility.yul\":8587:8683   */\n      swap4\n      pop\n        /* \"#utility.yul\":8692:8757   */\n      tag_227\n        /* \"#utility.yul\":8750:8756   */\n      dup2\n        /* \"#utility.yul\":8745:8748   */\n      dup6\n        /* \"#utility.yul\":8738:8742   */\n      0x20\n        /* \"#utility.yul\":8731:8736   */\n      dup7\n        /* \"#utility.yul\":8727:8743   */\n      add\n        /* \"#utility.yul\":8692:8757   */\n      tag_95\n      jump\t// in\n    tag_227:\n        /* \"#utility.yul\":8782:8788   */\n      dup1\n        /* \"#utility.yul\":8777:8780   */\n      dup5\n        /* \"#utility.yul\":8773:8789   */\n      add\n        /* \"#utility.yul\":8766:8789   */\n      swap2\n      pop\n        /* \"#utility.yul\":8515:8795   */\n      pop\n        /* \"#utility.yul\":8405:8795   */\n      swap3\n      swap2\n      pop\n      pop\n      jump\t// out\n        /* \"#utility.yul\":8801:9076   */\n    tag_18:\n        /* \"#utility.yul\":8933:8936   */\n      0x00\n        /* \"#utility.yul\":8955:9050   */\n      tag_229\n        /* \"#utility.yul\":9046:9049   */\n      dup3\n        /* \"#utility.yul\":9037:9043   */\n      dup5\n        /* \"#utility.yul\":8955:9050   */\n      tag_96\n      jump\t// in\n    tag_229:\n        /* \"#utility.yul\":8948:9050   */\n      swap2\n      pop\n        /* \"#utility.yul\":9067:9070   */\n      dup2\n        /* \"#utility.yul\":9060:9070   */\n      swap1\n      pop\n        /* \"#utility.yul\":8801:9076   */\n      swap3\n      swap2\n      pop\n      pop\n      jump\t// out\n        /* \"#utility.yul\":9082:9262   */\n    tag_97:\n        /* \"#utility.yul\":9130:9207   */\n      0x4e487b7100000000000000000000000000000000000000000000000000000000\n        /* \"#utility.yul\":9127:9128   */\n      0x00\n        /* \"#utility.yul\":9120:9208   */\n      mstore\n        /* \"#utility.yul\":9227:9231   */\n      0x22\n        /* \"#utility.yul\":9224:9225   */\n      0x04\n        /* \"#utility.yul\":9217:9232   */\n      mstore\n        /* \"#utility.yul\":9251:9255   */\n      0x24\n        /* \"#utility.yul\":9248:9249   */\n      0x00\n        /* \"#utility.yul\":9241:9256   */\n      revert\n        /* \"#utility.yul\":9268:9588   */\n    tag_20:\n        /* \"#utility.yul\":9312:9318   */\n      0x00\n        /* \"#utility.yul\":9349:9350   */\n      0x02\n        /* \"#utility.yul\":9343:9347   */\n      dup3\n        /* \"#utility.yul\":9339:9351   */\n      div\n        /* \"#utility.yul\":9329:9351   */\n      swap1\n      pop\n        /* \"#utility.yul\":9396:9397   */\n      0x01\n        /* \"#utility.yul\":9390:9394   */\n      dup3\n        /* \"#utility.yul\":9386:9398   */\n      and\n        /* \"#utility.yul\":9417:9435   */\n      dup1\n        /* \"#utility.yul\":9407:9488   */\n      tag_232\n      jumpi\n        /* \"#utility.yul\":9473:9477   */\n      0x7f\n        /* \"#utility.yul\":9465:9471   */\n      dup3\n        /* \"#utility.yul\":9461:9478   */\n      and\n        /* \"#utility.yul\":9451:9478   */\n      swap2\n      pop\n        /* \"#utility.yul\":9407:9488   */\n    tag_232:\n        /* \"#utility.yul\":9535:9537   */\n      0x20\n        /* \"#utility.yul\":9527:9533   */\n      dup3\n        /* \"#utility.yul\":9524:9538   */\n      lt\n        /* \"#utility.yul\":9504:9522   */\n      dup2\n        /* \"#utility.yul\":9501:9539   */\n      sub\n        /* \"#utility.yul\":9498:9582   */\n      tag_233\n      jumpi\n        /* \"#utility.yul\":9554:9572   */\n      tag_234\n      tag_97\n      jump\t// in\n    tag_234:\n        /* \"#utility.yul\":9498:9582   */\n    tag_233:\n        /* \"#utility.yul\":9319:9588   */\n      pop\n        /* \"#utility.yul\":9268:9588   */\n      swap2\n      swap1\n      pop\n      jump\t// out\n        /* \"#utility.yul\":9594:9763   */\n    tag_98:\n        /* \"#utility.yul\":9678:9689   */\n      0x00\n        /* \"#utility.yul\":9712:9718   */\n      dup3\n        /* \"#utility.yul\":9707:9710   */\n      dup3\n        /* \"#utility.yul\":9700:9719   */\n      mstore\n        /* \"#utility.yul\":9752:9756   */\n      0x20\n        /* \"#utility.yul\":9747:9750   */\n      dup3\n        /* \"#utility.yul\":9743:9757   */\n      add\n        /* \"#utility.yul\":9728:9757   */\n      swap1\n      pop\n        /* \"#utility.yul\":9594:9763   */\n      swap3\n      swap2\n      pop\n      pop\n      jump\t// out\n        /* \"#utility.yul\":9769:9934   */\n    tag_99:\n        /* \"#utility.yul\":9909:9926   */\n      0x4669726d61206e6f2076616c6964610000000000000000000000000000000000\n        /* \"#utility.yul\":9905:9906   */\n      0x00\n        /* \"#utility.yul\":9897:9903   */\n      dup3\n        /* \"#utility.yul\":9893:9907   */\n      add\n        /* \"#utility.yul\":9886:9927   */\n      mstore\n        /* \"#utility.yul\":9769:9934   */\n      pop\n      jump\t// out\n        /* \"#utility.yul\":9940:10306   */\n    tag_100:\n        /* \"#utility.yul\":10082:10085   */\n      0x00\n        /* \"#utility.yul\":10103:10170   */\n      tag_238\n        /* \"#utility.yul\":10167:10169   */\n      0x0f\n        /* \"#utility.yul\":10162:10165   */\n      dup4\n        /* \"#utility.yul\":10103:10170   */\n      tag_98\n      jump\t// in\n    tag_238:\n        /* \"#utility.yul\":10096:10170   */\n      swap2\n      pop\n        /* \"#utility.yul\":10179:10272   */\n      tag_239\n        /* \"#utility.yul\":10268:10271   */\n      dup3\n        /* \"#utility.yul\":10179:10272   */\n      tag_99\n      jump\t// in\n    tag_239:\n        /* \"#utility.yul\":10297:10299   */\n      0x20\n        /* \"#utility.yul\":10292:10295   */\n      dup3\n        /* \"#utility.yul\":10288:10300   */\n      add\n        /* \"#utility.yul\":10281:10300   */\n      swap1\n      pop\n        /* \"#utility.yul\":9940:10306   */\n      swap2\n      swap1\n      pop\n      jump\t// out\n        /* \"#utility.yul\":10312:10731   */\n    tag_28:\n        /* \"#utility.yul\":10478:10482   */\n      0x00\n        /* \"#utility.yul\":10516:10518   */\n      0x20\n        /* \"#utility.yul\":10505:10514   */\n      dup3\n        /* \"#utility.yul\":10501:10519   */\n      add\n        /* \"#utility.yul\":10493:10519   */\n      swap1\n      pop\n        /* \"#utility.yul\":10565:10574   */\n      dup2\n        /* \"#utility.yul\":10559:10563   */\n      dup2\n        /* \"#utility.yul\":10555:10575   */\n      sub\n        /* \"#utility.yul\":10551:10552   */\n      0x00\n        /* \"#utility.yul\":10540:10549   */\n      dup4\n        /* \"#utility.yul\":10536:10553   */\n      add\n        /* \"#utility.yul\":10529:10576   */\n      mstore\n        /* \"#utility.yul\":10593:10724   */\n      tag_241\n        /* \"#utility.yul\":10719:10723   */\n      dup2\n        /* \"#utility.yul\":10593:10724   */\n      tag_100\n      jump\t// in\n    tag_241:\n        /* \"#utility.yul\":10585:10724   */\n      swap1\n      pop\n        /* \"#utility.yul\":10312:10731   */\n      swap2\n      swap1\n      pop\n      jump\t// out\n        /* \"#utility.yul\":10737:10913   */\n    tag_101:\n        /* \"#utility.yul\":10877:10905   */\n      0x507275656261206465204d65726b6c65206e6f2076616c696461000000000000\n        /* \"#utility.yul\":10873:10874   */\n      0x00\n        /* \"#utility.yul\":10865:10871   */\n      dup3\n        /* \"#utility.yul\":10861:10875   */\n      add\n        /* \"#utility.yul\":10854:10906   */\n      mstore\n        /* \"#utility.yul\":10737:10913   */\n      pop\n      jump\t// out\n        /* \"#utility.yul\":10919:11285   */\n    tag_102:\n        /* \"#utility.yul\":11061:11064   */\n      0x00\n        /* \"#utility.yul\":11082:11149   */\n      tag_244\n        /* \"#utility.yul\":11146:11148   */\n      0x1a\n        /* \"#utility.yul\":11141:11144   */\n      dup4\n        /* \"#utility.yul\":11082:11149   */\n      tag_98\n      jump\t// in\n    tag_244:\n        /* \"#utility.yul\":11075:11149   */\n      swap2\n      pop\n        /* \"#utility.yul\":11158:11251   */\n      tag_245\n        /* \"#utility.yul\":11247:11250   */\n      dup3\n        /* \"#utility.yul\":11158:11251   */\n      tag_101\n      jump\t// in\n    tag_245:\n        /* \"#utility.yul\":11276:11278   */\n      0x20\n        /* \"#utility.yul\":11271:11274   */\n      dup3\n        /* \"#utility.yul\":11267:11279   */\n      add\n        /* \"#utility.yul\":11260:11279   */\n      swap1\n      pop\n        /* \"#utility.yul\":10919:11285   */\n      swap2\n      swap1\n      pop\n      jump\t// out\n        /* \"#utility.yul\":11291:11710   */\n    tag_34:\n        /* \"#utility.yul\":11457:11461   */\n      0x00\n        /* \"#utility.yul\":11495:11497   */\n      0x20\n        /* \"#utility.yul\":11484:11493   */\n      dup3\n        /* \"#utility.yul\":11480:11498   */\n      add\n        /* \"#utility.yul\":11472:11498   */\n      swap1\n      pop\n        /* \"#utility.yul\":11544:11553   */\n      dup2\n        /* \"#utility.yul\":11538:11542   */\n      dup2\n        /* \"#utility.yul\":11534:11554   */\n      sub\n        /* \"#utility.yul\":11530:11531   */\n      0x00\n        /* \"#utility.yul\":11519:11528   */\n      dup4\n        /* \"#utility.yul\":11515:11532   */\n      add\n        /* \"#utility.yul\":11508:11555   */\n      mstore\n        /* \"#utility.yul\":11572:11703   */\n      tag_247\n        /* \"#utility.yul\":11698:11702   */\n      dup2\n        /* \"#utility.yul\":11572:11703   */\n      tag_102\n      jump\t// in\n    tag_247:\n        /* \"#utility.yul\":11564:11703   */\n      swap1\n      pop\n        /* \"#utility.yul\":11291:11710   */\n      swap2\n      swap1\n      pop\n      jump\t// out\n        /* \"#utility.yul\":11716:11857   */\n    tag_103:\n        /* \"#utility.yul\":11765:11769   */\n      0x00\n        /* \"#utility.yul\":11788:11791   */\n      dup2\n        /* \"#utility.yul\":11780:11791   */\n      swap1\n      pop\n        /* \"#utility.yul\":11811:11814   */\n      dup2\n        /* \"#utility.yul\":11808:11809   */\n      0x00\n        /* \"#utility.yul\":11801:11815   */\n      mstore\n        /* \"#utility.yul\":11845:11849   */\n      0x20\n        /* \"#utility.yul\":11842:11843   */\n      0x00\n        /* \"#utility.yul\":11832:11850   */\n      keccak256\n        /* \"#utility.yul\":11824:11850   */\n      swap1\n      pop\n        /* \"#utility.yul\":11716:11857   */\n      swap2\n      swap1\n      pop\n      jump\t// out\n        /* \"#utility.yul\":11863:11956   */\n    tag_104:\n        /* \"#utility.yul\":11900:11906   */\n      0x00\n        /* \"#utility.yul\":11947:11949   */\n      0x20\n        /* \"#utility.yul\":11942:11944   */\n      0x1f\n        /* \"#utility.yul\":11935:11940   */\n      dup4\n        /* \"#utility.yul\":11931:11945   */\n      add\n        /* \"#utility.yul\":11927:11950   */\n      div\n        /* \"#utility.yul\":11917:11950   */\n      swap1\n      pop\n        /* \"#utility.yul\":11863:11956   */\n      swap2\n      swap1\n      pop\n      jump\t// out\n        /* \"#utility.yul\":11962:12069   */\n    tag_105:\n        /* \"#utility.yul\":12006:12014   */\n      0x00\n        /* \"#utility.yul\":12056:12061   */\n      dup3\n        /* \"#utility.yul\":12050:12054   */\n      dup3\n        /* \"#utility.yul\":12046:12062   */\n      shl\n        /* \"#utility.yul\":12025:12062   */\n      swap1\n      pop\n        /* \"#utility.yul\":11962:12069   */\n      swap3\n      swap2\n      pop\n      pop\n      jump\t// out\n        /* \"#utility.yul\":12075:12468   */\n    tag_106:\n        /* \"#utility.yul\":12144:12150   */\n      0x00\n        /* \"#utility.yul\":12194:12195   */\n      0x08\n        /* \"#utility.yul\":12182:12192   */\n      dup4\n        /* \"#utility.yul\":12178:12196   */\n      mul\n        /* \"#utility.yul\":12217:12314   */\n      tag_252\n        /* \"#utility.yul\":12247:12313   */\n      0xffffffffffffffffffffffffffffffffffffffffffffffffffffffffffffffff\n        /* \"#utility.yul\":12236:12245   */\n      dup3\n        /* \"#utility.yul\":12217:12314   */\n      tag_105\n      jump\t// in\n    tag_252:\n        /* \"#utility.yul\":12335:12374   */\n      tag_253\n        /* \"#utility.yul\":12365:12373   */\n      dup7\n        /* \"#utility.yul\":12354:12363   */\n      dup4\n        /* \"#utility.yul\":12335:12374   */\n      tag_105\n      jump\t// in\n    tag_253:\n        /* \"#utility.yul\":12323:12374   */\n      swap6\n      pop\n        /* \"#utility.yul\":12407:12411   */\n      dup1\n        /* \"#utility.yul\":12403:12412   */\n      not\n        /* \"#utility.yul\":12396:12401   */\n      dup5\n        /* \"#utility.yul\":12392:12413   */\n      and\n        /* \"#utility.yul\":12383:12413   */\n      swap4\n      pop\n        /* \"#utility.yul\":12456:12460   */\n      dup1\n        /* \"#utility.yul\":12446:12454   */\n      dup7\n        /* \"#utility.yul\":12442:12461   */\n      and\n        /* \"#utility.yul\":12435:12440   */\n      dup5\n        /* \"#utility.yul\":12432:12462   */\n      or\n        /* \"#utility.yul\":12422:12462   */\n      swap3\n      pop\n        /* \"#utility.yul\":12151:12468   */\n      pop\n      pop\n        /* \"#utility.yul\":12075:12468   */\n      swap4\n      swap3\n      pop\n      pop\n      pop\n      jump\t// out\n        /* \"#utility.yul\":12474:12551   */\n    tag_107:\n        /* \"#utility.yul\":12511:12518   */\n      0x00\n        /* \"#utility.yul\":12540:12545   */\n      dup2\n        /* \"#utility.yul\":12529:12545   */\n      swap1\n      pop\n        /* \"#utility.yul\":12474:12551   */\n      swap2\n      swap1\n      pop\n      jump\t// out\n        /* \"#utility.yul\":12557:12617   */\n    tag_108:\n        /* \"#utility.yul\":12585:12588   */\n      0x00\n        /* \"#utility.yul\":12606:12611   */\n      dup2\n        /* \"#utility.yul\":12599:12611   */\n      swap1\n      pop\n        /* \"#utility.yul\":12557:12617   */\n      swap2\n      swap1\n      pop\n      jump\t// out\n        /* \"#utility.yul\":12623:12765   */\n    tag_109:\n        /* \"#utility.yul\":12673:12682   */\n      0x00\n        /* \"#utility.yul\":12706:12759   */\n      tag_257\n        /* \"#utility.yul\":12724:12758   */\n      tag_258\n        /* \"#utility.yul\":12733:12757   */\n      tag_259\n        /* \"#utility.yul\":12751:12756   */\n      dup5\n        /* \"#utility.yul\":12733:12757   */\n      tag_107\n      jump\t// in\n    tag_259:\n        /* \"#utility.yul\":12724:12758   */\n      tag_108\n      jump\t// in\n    tag_258:\n        /* \"#utility.yul\":12706:12759   */\n      tag_107\n      jump\t// in\n    tag_257:\n        /* \"#utility.yul\":12693:12759   */\n      swap1\n      pop\n        /* \"#utility.yul\":12623:12765   */\n      swap2\n      swap1\n      pop\n      jump\t// out\n        /* \"#utility.yul\":12771:12846   */\n    tag_110:\n        /* \"#utility.yul\":12814:12817   */\n      0x00\n        /* \"#utility.yul\":12835:12840   */\n      dup2\n        /* \"#utility.yul\":12828:12840   */\n      swap1\n      pop\n        /* \"#utility.yul\":12771:12846   */\n      swap2\n      swap1\n      pop\n      jump\t// out\n        /* \"#utility.yul\":12852:13121   */\n    tag_111:\n        /* \"#utility.yul\":12962:13001   */\n      tag_262\n        /* \"#utility.yul\":12993:13000   */\n      dup4\n        /* \"#utility.yul\":12962:13001   */\n      tag_109\n      jump\t// in\n    tag_262:\n        /* \"#utility.yul\":13023:13114   */\n      tag_263\n        /* \"#utility.yul\":13072:13113   */\n      tag_264\n        /* \"#utility.yul\":13096:13112   */\n      dup3\n        /* \"#utility.yul\":13072:13113   */\n      tag_110\n      jump\t// in\n    tag_264:\n        /* \"#utility.yul\":13064:13070   */\n      dup5\n        /* \"#utility.yul\":13057:13061   */\n      dup5\n        /* \"#utility.yul\":13051:13062   */\n      sload\n        /* \"#utility.yul\":13023:13114   */\n      tag_106\n      jump\t// in\n    tag_263:\n        /* \"#utility.yul\":13017:13021   */\n      dup3\n        /* \"#utility.yul\":13010:13115   */\n      sstore\n        /* \"#utility.yul\":12928:13121   */\n      pop\n        /* \"#utility.yul\":12852:13121   */\n      pop\n      pop\n      pop\n      jump\t// out\n        /* \"#utility.yul\":13127:13200   */\n    tag_112:\n        /* \"#utility.yul\":13172:13175   */\n      0x00\n        /* \"#utility.yul\":13127:13200   */\n      swap1\n      jump\t// out\n        /* \"#utility.yul\":13206:13395   */\n    tag_113:\n        /* \"#utility.yul\":13283:13315   */\n      tag_267\n      tag_112\n      jump\t// in\n    tag_267:\n        /* \"#utility.yul\":13324:13389   */\n      tag_268\n        /* \"#utility.yul\":13382:13388   */\n      dup2\n        /* \"#utility.yul\":13374:13380   */\n      dup5\n        /* \"#utility.yul\":13368:13372   */\n      dup5\n        /* \"#utility.yul\":13324:13389   */\n      tag_111\n      jump\t// in\n    tag_268:\n        /* \"#utility.yul\":13259:13395   */\n      pop\n        /* \"#utility.yul\":13206:13395   */\n      pop\n      pop\n      jump\t// out\n        /* \"#utility.yul\":13401:13587   */\n    tag_114:\n        /* \"#utility.yul\":13461:13581   */\n    tag_270:\n        /* \"#utility.yul\":13478:13481   */\n      dup2\n        /* \"#utility.yul\":13471:13476   */\n      dup2\n        /* \"#utility.yul\":13468:13482   */\n      lt\n        /* \"#utility.yul\":13461:13581   */\n      iszero\n      tag_272\n      jumpi\n        /* \"#utility.yul\":13532:13571   */\n      tag_273\n        /* \"#utility.yul\":13569:13570   */\n      0x00\n        /* \"#utility.yul\":13562:13567   */\n      dup3\n        /* \"#utility.yul\":13532:13571   */\n      tag_113\n      jump\t// in\n    tag_273:\n        /* \"#utility.yul\":13505:13506   */\n      0x01\n        /* \"#utility.yul\":13498:13503   */\n      dup2\n        /* \"#utility.yul\":13494:13507   */\n      add\n        /* \"#utility.yul\":13485:13507   */\n      swap1\n      pop\n        /* \"#utility.yul\":13461:13581   */\n      jump(tag_270)\n    tag_272:\n        /* \"#utility.yul\":13401:13587   */\n      pop\n      pop\n      jump\t// out\n        /* \"#utility.yul\":13593:14136   */\n    tag_115:\n        /* \"#utility.yul\":13694:13696   */\n      0x1f\n        /* \"#utility.yul\":13689:13692   */\n      dup3\n        /* \"#utility.yul\":13686:13697   */\n      gt\n        /* \"#utility.yul\":13683:14129   */\n      iszero\n      tag_275\n      jumpi\n        /* \"#utility.yul\":13728:13766   */\n      tag_276\n        /* \"#utility.yul\":13760:13765   */\n      dup2\n        /* \"#utility.yul\":13728:13766   */\n      tag_103\n      jump\t// in\n    tag_276:\n        /* \"#utility.yul\":13812:13841   */\n      tag_277\n        /* \"#utility.yul\":13830:13840   */\n      dup5\n        /* \"#utility.yul\":13812:13841   */\n      tag_104\n      jump\t// in\n    tag_277:\n        /* \"#utility.yul\":13802:13810   */\n      dup2\n        /* \"#utility.yul\":13798:13842   */\n      add\n        /* \"#utility.yul\":13995:13997   */\n      0x20\n        /* \"#utility.yul\":13983:13993   */\n      dup6\n        /* \"#utility.yul\":13980:13998   */\n      lt\n        /* \"#utility.yul\":13977:14026   */\n      iszero\n      tag_278\n      jumpi\n        /* \"#utility.yul\":14016:14024   */\n      dup2\n        /* \"#utility.yul\":14001:14024   */\n      swap1\n      pop\n        /* \"#utility.yul\":13977:14026   */\n    tag_278:\n        /* \"#utility.yul\":14039:14119   */\n      tag_279\n        /* \"#utility.yul\":14095:14117   */\n      tag_280\n        /* \"#utility.yul\":14113:14116   */\n      dup6\n        /* \"#utility.yul\":14095:14117   */\n      tag_104\n      jump\t// in\n    tag_280:\n        /* \"#utility.yul\":14085:14093   */\n      dup4\n        /* \"#utility.yul\":14081:14118   */\n      add\n        /* \"#utility.yul\":14068:14079   */\n      dup3\n        /* \"#utility.yul\":14039:14119   */\n      tag_114\n      jump\t// in\n    tag_279:\n        /* \"#utility.yul\":13698:14129   */\n      pop\n      pop\n        /* \"#utility.yul\":13683:14129   */\n    tag_275:\n        /* \"#utility.yul\":13593:14136   */\n      pop\n      pop\n      pop\n      jump\t// out\n        /* \"#utility.yul\":14142:14259   */\n    tag_116:\n        /* \"#utility.yul\":14196:14204   */\n      0x00\n        /* \"#utility.yul\":14246:14251   */\n      dup3\n        /* \"#utility.yul\":14240:14244   */\n      dup3\n        /* \"#utility.yul\":14236:14252   */\n      shr\n        /* \"#utility.yul\":14215:14252   */\n      swap1\n      pop\n        /* \"#utility.yul\":14142:14259   */\n      swap3\n      swap2\n      pop\n      pop\n      jump\t// out\n        /* \"#utility.yul\":14265:14434   */\n    tag_117:\n        /* \"#utility.yul\":14309:14315   */\n      0x00\n        /* \"#utility.yul\":14342:14393   */\n      tag_283\n        /* \"#utility.yul\":14390:14391   */\n      0x00\n        /* \"#utility.yul\":14386:14392   */\n      not\n        /* \"#utility.yul\":14378:14383   */\n      dup5\n        /* \"#utility.yul\":14375:14376   */\n      0x08\n        /* \"#utility.yul\":14371:14384   */\n      mul\n        /* \"#utility.yul\":14342:14393   */\n      tag_116\n      jump\t// in\n    tag_283:\n        /* \"#utility.yul\":14338:14394   */\n      not\n        /* \"#utility.yul\":14423:14427   */\n      dup1\n        /* \"#utility.yul\":14417:14421   */\n      dup4\n        /* \"#utility.yul\":14413:14428   */\n      and\n        /* \"#utility.yul\":14403:14428   */\n      swap2\n      pop\n        /* \"#utility.yul\":14316:14434   */\n      pop\n        /* \"#utility.yul\":14265:14434   */\n      swap3\n      swap2\n      pop\n      pop\n      jump\t// out\n        /* \"#utility.yul\":14439:14734   */\n    tag_118:\n        /* \"#utility.yul\":14515:14519   */\n      0x00\n        /* \"#utility.yul\":14661:14690   */\n      tag_285\n        /* \"#utility.yul\":14686:14689   */\n      dup4\n        /* \"#utility.yul\":14680:14684   */\n      dup4\n        /* \"#utility.yul\":14661:14690   */\n      tag_117\n      jump\t// in\n    tag_285:\n        /* \"#utility.yul\":14653:14690   */\n      swap2\n      pop\n        /* \"#utility.yul\":14723:14726   */\n      dup3\n        /* \"#utility.yul\":14720:14721   */\n      0x02\n        /* \"#utility.yul\":14716:14727   */\n      mul\n        /* \"#utility.yul\":14710:14714   */\n      dup3\n        /* \"#utility.yul\":14707:14728   */\n      or\n        /* \"#utility.yul\":14699:14728   */\n      swap1\n      pop\n        /* \"#utility.yul\":14439:14734   */\n      swap3\n      swap2\n      pop\n      pop\n      jump\t// out\n        /* \"#utility.yul\":14739:16134   */\n    tag_38:\n        /* \"#utility.yul\":14856:14893   */\n      tag_287\n        /* \"#utility.yul\":14889:14892   */\n      dup3\n        /* \"#utility.yul\":14856:14893   */\n      tag_93\n      jump\t// in\n    tag_287:\n        /* \"#utility.yul\":14958:14976   */\n      0xffffffffffffffff\n        /* \"#utility.yul\":14950:14956   */\n      dup2\n        /* \"#utility.yul\":14947:14977   */\n      gt\n        /* \"#utility.yul\":14944:15000   */\n      iszero\n      tag_288\n      jumpi\n        /* \"#utility.yul\":14980:14998   */\n      tag_289\n      tag_74\n      jump\t// in\n    tag_289:\n        /* \"#utility.yul\":14944:15000   */\n    tag_288:\n        /* \"#utility.yul\":15024:15062   */\n      tag_290\n        /* \"#utility.yul\":15056:15060   */\n      dup3\n        /* \"#utility.yul\":15050:15061   */\n      sload\n        /* \"#utility.yul\":15024:15062   */\n      tag_20\n      jump\t// in\n    tag_290:\n        /* \"#utility.yul\":15109:15176   */\n      tag_291\n        /* \"#utility.yul\":15169:15175   */\n      dup3\n        /* \"#utility.yul\":15161:15167   */\n      dup3\n        /* \"#utility.yul\":15155:15159   */\n      dup6\n        /* \"#utility.yul\":15109:15176   */\n      tag_115\n      jump\t// in\n    tag_291:\n        /* \"#utility.yul\":15203:15204   */\n      0x00\n        /* \"#utility.yul\":15227:15231   */\n      0x20\n        /* \"#utility.yul\":15214:15231   */\n      swap1\n      pop\n        /* \"#utility.yul\":15259:15261   */\n      0x1f\n        /* \"#utility.yul\":15251:15257   */\n      dup4\n        /* \"#utility.yul\":15248:15262   */\n      gt\n        /* \"#utility.yul\":15276:15277   */\n      0x01\n        /* \"#utility.yul\":15271:15889   */\n      dup2\n      eq\n      tag_293\n      jumpi\n        /* \"#utility.yul\":15933:15934   */\n      0x00\n        /* \"#utility.yul\":15950:15956   */\n      dup5\n        /* \"#utility.yul\":15947:16024   */\n      iszero\n      tag_294\n      jumpi\n        /* \"#utility.yul\":15999:16008   */\n      dup3\n        /* \"#utility.yul\":15994:15997   */\n      dup8\n        /* \"#utility.yul\":15990:16009   */\n      add\n        /* \"#utility.yul\":15984:16010   */\n      mload\n        /* \"#utility.yul\":15975:16010   */\n      swap1\n      pop\n        /* \"#utility.yul\":15947:16024   */\n    tag_294:\n        /* \"#utility.yul\":16050:16117   */\n      tag_295\n        /* \"#utility.yul\":16110:16116   */\n      dup6\n        /* \"#utility.yul\":16103:16108   */\n      dup3\n        /* \"#utility.yul\":16050:16117   */\n      tag_118\n      jump\t// in\n    tag_295:\n        /* \"#utility.yul\":16044:16048   */\n      dup7\n        /* \"#utility.yul\":16037:16118   */\n      sstore\n        /* \"#utility.yul\":15906:16128   */\n      pop\n        /* \"#utility.yul\":15241:16128   */\n      jump(tag_292)\n        /* \"#utility.yul\":15271:15889   */\n    tag_293:\n        /* \"#utility.yul\":15323:15327   */\n      0x1f\n        /* \"#utility.yul\":15319:15328   */\n      not\n        /* \"#utility.yul\":15311:15317   */\n      dup5\n        /* \"#utility.yul\":15307:15329   */\n      and\n        /* \"#utility.yul\":15357:15394   */\n      tag_296\n        /* \"#utility.yul\":15389:15393   */\n      dup7\n        /* \"#utility.yul\":15357:15394   */\n      tag_103\n      jump\t// in\n    tag_296:\n        /* \"#utility.yul\":15416:15417   */\n      0x00\n        /* \"#utility.yul\":15430:15638   */\n    tag_297:\n        /* \"#utility.yul\":15444:15451   */\n      dup3\n        /* \"#utility.yul\":15441:15442   */\n      dup2\n        /* \"#utility.yul\":15438:15452   */\n      lt\n        /* \"#utility.yul\":15430:15638   */\n      iszero\n      tag_299\n      jumpi\n        /* \"#utility.yul\":15523:15532   */\n      dup5\n        /* \"#utility.yul\":15518:15521   */\n      dup10\n        /* \"#utility.yul\":15514:15533   */\n      add\n        /* \"#utility.yul\":15508:15534   */\n      mload\n        /* \"#utility.yul\":15500:15506   */\n      dup3\n        /* \"#utility.yul\":15493:15535   */\n      sstore\n        /* \"#utility.yul\":15574:15575   */\n      0x01\n        /* \"#utility.yul\":15566:15572   */\n      dup3\n        /* \"#utility.yul\":15562:15576   */\n      add\n        /* \"#utility.yul\":15552:15576   */\n      swap2\n      pop\n        /* \"#utility.yul\":15621:15623   */\n      0x20\n        /* \"#utility.yul\":15610:15619   */\n      dup6\n        /* \"#utility.yul\":15606:15624   */\n      add\n        /* \"#utility.yul\":15593:15624   */\n      swap5\n      pop\n        /* \"#utility.yul\":15467:15471   */\n      0x20\n        /* \"#utility.yul\":15464:15465   */\n      dup2\n        /* \"#utility.yul\":15460:15472   */\n      add\n        /* \"#utility.yul\":15455:15472   */\n      swap1\n      pop\n        /* \"#utility.yul\":15430:15638   */\n      jump(tag_297)\n    tag_299:\n        /* \"#utility.yul\":15666:15672   */\n      dup7\n        /* \"#utility.yul\":15657:15664   */\n      dup4\n        /* \"#utility.yul\":15654:15673   */\n      lt\n        /* \"#utility.yul\":15651:15830   */\n      iszero\n      tag_300\n      jumpi\n        /* \"#utility.yul\":15724:15733   */\n      dup5\n        /* \"#utility.yul\":15719:15722   */\n      dup10\n        /* \"#utility.yul\":15715:15734   */\n      add\n        /* \"#utility.yul\":15709:15735   */\n      mload\n        /* \"#utility.yul\":15767:15815   */\n      tag_301\n        /* \"#utility.yul\":15809:15813   */\n      0x1f\n        /* \"#utility.yul\":15801:15807   */\n      dup10\n        /* \"#utility.yul\":15797:15814   */\n      and\n        /* \"#utility.yul\":15786:15795   */\n      dup3\n        /* \"#utility.yul\":15767:15815   */\n      tag_117\n      jump\t// in\n    tag_301:\n        /* \"#utility.yul\":15759:15765   */\n      dup4\n        /* \"#utility.yul\":15752:15816   */\n      sstore\n        /* \"#utility.yul\":15674:15830   */\n      pop\n        /* \"#utility.yul\":15651:15830   */\n    tag_300:\n        /* \"#utility.yul\":15876:15877   */\n      0x01\n        /* \"#utility.yul\":15872:15873   */\n      0x02\n        /* \"#utility.yul\":15864:15870   */\n      dup9\n        /* \"#utility.yul\":15860:15874   */\n      mul\n        /* \"#utility.yul\":15856:15878   */\n      add\n        /* \"#utility.yul\":15850:15854   */\n      dup9\n        /* \"#utility.yul\":15843:15879   */\n      sstore\n        /* \"#utility.yul\":15278:15889   */\n      pop\n      pop\n      pop\n        /* \"#utility.yul\":15241:16128   */\n    tag_292:\n      pop\n        /* \"#utility.yul\":14831:16134   */\n      pop\n      pop\n      pop\n        /* \"#utility.yul\":14739:16134   */\n      pop\n      pop\n      jump\t// out\n        /* \"#utility.yul\":16140:16238   */\n    tag_119:\n        /* \"#utility.yul\":16191:16197   */\n      0x00\n        /* \"#utility.yul\":16225:16230   */\n      dup2\n        /* \"#utility.yul\":16219:16231   */\n      mload\n        /* \"#utility.yul\":16209:16231   */\n      swap1\n      pop\n        /* \"#utility.yul\":16140:16238   */\n      swap2\n      swap1\n      pop\n      jump\t// out\n        /* \"#utility.yul\":16244:16384   */\n    tag_120:\n        /* \"#utility.yul\":16292:16296   */\n      0x00\n        /* \"#utility.yul\":16315:16318   */\n      dup2\n        /* \"#utility.yul\":16307:16318   */\n      swap1\n      pop\n        /* \"#utility.yul\":16338:16341   */\n      dup2\n        /* \"#utility.yul\":16335:16336   */\n      0x00\n        /* \"#utility.yul\":16328:16342   */\n      mstore\n        /* \"#utility.yul\":16372:16376   */\n      0x20\n        /* \"#utility.yul\":16369:16370   */\n      0x00\n        /* \"#utility.yul\":16359:16377   */\n      keccak256\n        /* \"#utility.yul\":16351:16377   */\n      swap1\n      pop\n        /* \"#utility.yul\":16244:16384   */\n      swap2\n      swap1\n      pop\n      jump\t// out\n        /* \"#utility.yul\":16390:16931   */\n    tag_121:\n        /* \"#utility.yul\":16490:16492   */\n      0x1f\n        /* \"#utility.yul\":16485:16488   */\n      dup3\n        /* \"#utility.yul\":16482:16493   */\n      gt\n        /* \"#utility.yul\":16479:16924   */\n      iszero\n      tag_305\n      jumpi\n        /* \"#utility.yul\":16524:16561   */\n      tag_306\n        /* \"#utility.yul\":16555:16560   */\n      dup2\n        /* \"#utility.yul\":16524:16561   */\n      tag_120\n      jump\t// in\n    tag_306:\n        /* \"#utility.yul\":16607:16636   */\n      tag_307\n        /* \"#utility.yul\":16625:16635   */\n      dup5\n        /* \"#utility.yul\":16607:16636   */\n      tag_104\n      jump\t// in\n    tag_307:\n        /* \"#utility.yul\":16597:16605   */\n      dup2\n        /* \"#utility.yul\":16593:16637   */\n      add\n        /* \"#utility.yul\":16790:16792   */\n      0x20\n        /* \"#utility.yul\":16778:16788   */\n      dup6\n        /* \"#utility.yul\":16775:16793   */\n      lt\n        /* \"#utility.yul\":16772:16821   */\n      iszero\n      tag_308\n      jumpi\n        /* \"#utility.yul\":16811:16819   */\n      dup2\n        /* \"#utility.yul\":16796:16819   */\n      swap1\n      pop\n        /* \"#utility.yul\":16772:16821   */\n    tag_308:\n        /* \"#utility.yul\":16834:16914   */\n      tag_309\n        /* \"#utility.yul\":16890:16912   */\n      tag_310\n        /* \"#utility.yul\":16908:16911   */\n      dup6\n        /* \"#utility.yul\":16890:16912   */\n      tag_104\n      jump\t// in\n    tag_310:\n        /* \"#utility.yul\":16880:16888   */\n      dup4\n        /* \"#utility.yul\":16876:16913   */\n      add\n        /* \"#utility.yul\":16863:16874   */\n      dup3\n        /* \"#utility.yul\":16834:16914   */\n      tag_114\n      jump\t// in\n    tag_309:\n        /* \"#utility.yul\":16494:16924   */\n      pop\n      pop\n        /* \"#utility.yul\":16479:16924   */\n    tag_305:\n        /* \"#utility.yul\":16390:16931   */\n      pop\n      pop\n      pop\n      jump\t// out\n        /* \"#utility.yul\":16937:18327   */\n    tag_40:\n        /* \"#utility.yul\":17052:17088   */\n      tag_312\n        /* \"#utility.yul\":17084:17087   */\n      dup3\n        /* \"#utility.yul\":17052:17088   */\n      tag_119\n      jump\t// in\n    tag_312:\n        /* \"#utility.yul\":17153:17171   */\n      0xffffffffffffffff\n        /* \"#utility.yul\":17145:17151   */\n      dup2\n        /* \"#utility.yul\":17142:17172   */\n      gt\n        /* \"#utility.yul\":17139:17195   */\n      iszero\n      tag_313\n      jumpi\n        /* \"#utility.yul\":17175:17193   */\n      tag_314\n      tag_74\n      jump\t// in\n    tag_314:\n        /* \"#utility.yul\":17139:17195   */\n    tag_313:\n        /* \"#utility.yul\":17219:17257   */\n      tag_315\n        /* \"#utility.yul\":17251:17255   */\n      dup3\n        /* \"#utility.yul\":17245:17256   */\n      sload\n        /* \"#utility.yul\":17219:17257   */\n      tag_20\n      jump\t// in\n    tag_315:\n        /* \"#utility.yul\":17304:17370   */\n      tag_316\n        /* \"#utility.yul\":17363:17369   */\n      dup3\n        /* \"#utility.yul\":17355:17361   */\n      dup3\n        /* \"#utility.yul\":17349:17353   */\n      dup6\n        /* \"#utility.yul\":17304:17370   */\n      tag_121\n      jump\t// in\n    tag_316:\n        /* \"#utility.yul\":17397:17398   */\n      0x00\n        /* \"#utility.yul\":17421:17425   */\n      0x20\n        /* \"#utility.yul\":17408:17425   */\n      swap1\n      pop\n        /* \"#utility.yul\":17453:17455   */\n      0x1f\n        /* \"#utility.yul\":17445:17451   */\n      dup4\n        /* \"#utility.yul\":17442:17456   */\n      gt\n        /* \"#utility.yul\":17470:17471   */\n      0x01\n        /* \"#utility.yul\":17465:18082   */\n      dup2\n      eq\n      tag_318\n      jumpi\n        /* \"#utility.yul\":18126:18127   */\n      0x00\n        /* \"#utility.yul\":18143:18149   */\n      dup5\n        /* \"#utility.yul\":18140:18217   */\n      iszero\n      tag_319\n      jumpi\n        /* \"#utility.yul\":18192:18201   */\n      dup3\n        /* \"#utility.yul\":18187:18190   */\n      dup8\n        /* \"#utility.yul\":18183:18202   */\n      add\n        /* \"#utility.yul\":18177:18203   */\n      mload\n        /* \"#utility.yul\":18168:18203   */\n      swap1\n      pop\n        /* \"#utility.yul\":18140:18217   */\n    tag_319:\n        /* \"#utility.yul\":18243:18310   */\n      tag_320\n        /* \"#utility.yul\":18303:18309   */\n      dup6\n        /* \"#utility.yul\":18296:18301   */\n      dup3\n        /* \"#utility.yul\":18243:18310   */\n      tag_118\n      jump\t// in\n    tag_320:\n        /* \"#utility.yul\":18237:18241   */\n      dup7\n        /* \"#utility.yul\":18230:18311   */\n      sstore\n        /* \"#utility.yul\":18099:18321   */\n      pop\n        /* \"#utility.yul\":17435:18321   */\n      jump(tag_317)\n        /* \"#utility.yul\":17465:18082   */\n    tag_318:\n        /* \"#utility.yul\":17517:17521   */\n      0x1f\n        /* \"#utility.yul\":17513:17522   */\n      not\n        /* \"#utility.yul\":17505:17511   */\n      dup5\n        /* \"#utility.yul\":17501:17523   */\n      and\n        /* \"#utility.yul\":17551:17587   */\n      tag_321\n        /* \"#utility.yul\":17582:17586   */\n      dup7\n        /* \"#utility.yul\":17551:17587   */\n      tag_120\n      jump\t// in\n    tag_321:\n        /* \"#utility.yul\":17609:17610   */\n      0x00\n        /* \"#utility.yul\":17623:17831   */\n    tag_322:\n        /* \"#utility.yul\":17637:17644   */\n      dup3\n        /* \"#utility.yul\":17634:17635   */\n      dup2\n        /* \"#utility.yul\":17631:17645   */\n      lt\n        /* \"#utility.yul\":17623:17831   */\n      iszero\n      tag_324\n      jumpi\n        /* \"#utility.yul\":17716:17725   */\n      dup5\n        /* \"#utility.yul\":17711:17714   */\n      dup10\n        /* \"#utility.yul\":17707:17726   */\n      add\n        /* \"#utility.yul\":17701:17727   */\n      mload\n        /* \"#utility.yul\":17693:17699   */\n      dup3\n        /* \"#utility.yul\":17686:17728   */\n      sstore\n        /* \"#utility.yul\":17767:17768   */\n      0x01\n        /* \"#utility.yul\":17759:17765   */\n      dup3\n        /* \"#utility.yul\":17755:17769   */\n      add\n        /* \"#utility.yul\":17745:17769   */\n      swap2\n      pop\n        /* \"#utility.yul\":17814:17816   */\n      0x20\n        /* \"#utility.yul\":17803:17812   */\n      dup6\n        /* \"#utility.yul\":17799:17817   */\n      add\n        /* \"#utility.yul\":17786:17817   */\n      swap5\n      pop\n        /* \"#utility.yul\":17660:17664   */\n      0x20\n        /* \"#utility.yul\":17657:17658   */\n      dup2\n        /* \"#utility.yul\":17653:17665   */\n      add\n        /* \"#utility.yul\":17648:17665   */\n      swap1\n      pop\n        /* \"#utility.yul\":17623:17831   */\n      jump(tag_322)\n    tag_324:\n        /* \"#utility.yul\":17859:17865   */\n      dup7\n        /* \"#utility.yul\":17850:17857   */\n      dup4\n        /* \"#utility.yul\":17847:17866   */\n      lt\n        /* \"#utility.yul\":17844:18023   */\n      iszero\n      tag_325\n      jumpi\n        /* \"#utility.yul\":17917:17926   */\n      dup5\n        /* \"#utility.yul\":17912:17915   */\n      dup10\n        /* \"#utility.yul\":17908:17927   */\n      add\n        /* \"#utility.yul\":17902:17928   */\n      mload\n        /* \"#utility.yul\":17960:18008   */\n      tag_326\n        /* \"#utility.yul\":18002:18006   */\n      0x1f\n        /* \"#utility.yul\":17994:18000   */\n      dup10\n        /* \"#utility.yul\":17990:18007   */\n      and\n        /* \"#utility.yul\":17979:17988   */\n      dup3\n        /* \"#utility.yul\":17960:18008   */\n      tag_117\n      jump\t// in\n    tag_326:\n        /* \"#utility.yul\":17952:17958   */\n      dup4\n        /* \"#utility.yul\":17945:18009   */\n      sstore\n        /* \"#utility.yul\":17867:18023   */\n      pop\n        /* \"#utility.yul\":17844:18023   */\n    tag_325:\n        /* \"#utility.yul\":18069:18070   */\n      0x01\n        /* \"#utility.yul\":18065:18066   */\n      0x02\n        /* \"#utility.yul\":18057:18063   */\n      dup9\n        /* \"#utility.yul\":18053:18067   */\n      mul\n        /* \"#utility.yul\":18049:18071   */\n      add\n        /* \"#utility.yul\":18043:18047   */\n      dup9\n        /* \"#utility.yul\":18036:18072   */\n      sstore\n        /* \"#utility.yul\":17472:18082   */\n      pop\n      pop\n      pop\n        /* \"#utility.yul\":17435:18321   */\n    tag_317:\n      pop\n        /* \"#utility.yul\":17027:18327   */\n      pop\n      pop\n      pop\n        /* \"#utility.yul\":16937:18327   */\n      pop\n      pop\n      jump\t// out\n        /* \"#utility.yul\":18333:18547   */\n    tag_122:\n        /* \"#utility.yul\":18473:18539   */\n      0x19457468657265756d205369676e6564204d6573736167653a0a333200000000\n        /* \"#utility.yul\":18469:18470   */\n      0x00\n        /* \"#utility.yul\":18461:18467   */\n      dup3\n        /* \"#utility.yul\":18457:18471   */\n      add\n        /* \"#utility.yul\":18450:18540   */\n      mstore\n        /* \"#utility.yul\":18333:18547   */\n      pop\n      jump\t// out\n        /* \"#utility.yul\":18553:18955   */\n    tag_123:\n        /* \"#utility.yul\":18713:18716   */\n      0x00\n        /* \"#utility.yul\":18734:18819   */\n      tag_329\n        /* \"#utility.yul\":18816:18818   */\n      0x1c\n        /* \"#utility.yul\":18811:18814   */\n      dup4\n        /* \"#utility.yul\":18734:18819   */\n      tag_94\n      jump\t// in\n    tag_329:\n        /* \"#utility.yul\":18727:18819   */\n      swap2\n      pop\n        /* \"#utility.yul\":18828:18921   */\n      tag_330\n        /* \"#utility.yul\":18917:18920   */\n      dup3\n        /* \"#utility.yul\":18828:18921   */\n      tag_122\n      jump\t// in\n    tag_330:\n        /* \"#utility.yul\":18946:18948   */\n      0x1c\n        /* \"#utility.yul\":18941:18944   */\n      dup3\n        /* \"#utility.yul\":18937:18949   */\n      add\n        /* \"#utility.yul\":18930:18949   */\n      swap1\n      pop\n        /* \"#utility.yul\":18553:18955   */\n      swap2\n      swap1\n      pop\n      jump\t// out\n        /* \"#utility.yul\":18961:19040   */\n    tag_124:\n        /* \"#utility.yul\":19000:19007   */\n      0x00\n        /* \"#utility.yul\":19029:19034   */\n      dup2\n        /* \"#utility.yul\":19018:19034   */\n      swap1\n      pop\n        /* \"#utility.yul\":18961:19040   */\n      swap2\n      swap1\n      pop\n      jump\t// out\n        /* \"#utility.yul\":19046:19203   */\n    tag_125:\n        /* \"#utility.yul\":19151:19196   */\n      tag_333\n        /* \"#utility.yul\":19171:19195   */\n      tag_334\n        /* \"#utility.yul\":19189:19194   */\n      dup3\n        /* \"#utility.yul\":19171:19195   */\n      tag_83\n      jump\t// in\n    tag_334:\n        /* \"#utility.yul\":19151:19196   */\n      tag_124\n      jump\t// in\n    tag_333:\n        /* \"#utility.yul\":19146:19149   */\n      dup3\n        /* \"#utility.yul\":19139:19197   */\n      mstore\n        /* \"#utility.yul\":19046:19203   */\n      pop\n      pop\n      jump\t// out\n        /* \"#utility.yul\":19209:19731   */\n    tag_44:\n        /* \"#utility.yul\":19422:19425   */\n      0x00\n        /* \"#utility.yul\":19444:19592   */\n      tag_336\n        /* \"#utility.yul\":19588:19591   */\n      dup3\n        /* \"#utility.yul\":19444:19592   */\n      tag_123\n      jump\t// in\n    tag_336:\n        /* \"#utility.yul\":19437:19592   */\n      swap2\n      pop\n        /* \"#utility.yul\":19602:19677   */\n      tag_337\n        /* \"#utility.yul\":19673:19676   */\n      dup3\n        /* \"#utility.yul\":19664:19670   */\n      dup5\n        /* \"#utility.yul\":19602:19677   */\n      tag_125\n      jump\t// in\n    tag_337:\n        /* \"#utility.yul\":19702:19704   */\n      0x20\n        /* \"#utility.yul\":19697:19700   */\n      dup3\n        /* \"#utility.yul\":19693:19705   */\n      add\n        /* \"#utility.yul\":19686:19705   */\n      swap2\n      pop\n        /* \"#utility.yul\":19722:19725   */\n      dup2\n        /* \"#utility.yul\":19715:19725   */\n      swap1\n      pop\n        /* \"#utility.yul\":19209:19731   */\n      swap3\n      swap2\n      pop\n      pop\n      jump\t// out\n        /* \"#utility.yul\":19737:19855   */\n    tag_126:\n        /* \"#utility.yul\":19824:19848   */\n      tag_339\n        /* \"#utility.yul\":19842:19847   */\n      dup2\n        /* \"#utility.yul\":19824:19848   */\n      tag_83\n      jump\t// in\n    tag_339:\n        /* \"#utility.yul\":19819:19822   */\n      dup3\n        /* \"#utility.yul\":19812:19849   */\n      mstore\n        /* \"#utility.yul\":19737:19855   */\n      pop\n      pop\n      jump\t// out\n        /* \"#utility.yul\":19861:19947   */\n    tag_127:\n        /* \"#utility.yul\":19896:19903   */\n      0x00\n        /* \"#utility.yul\":19936:19940   */\n      0xff\n        /* \"#utility.yul\":19929:19934   */\n      dup3\n        /* \"#utility.yul\":19925:19941   */\n      and\n        /* \"#utility.yul\":19914:19941   */\n      swap1\n      pop\n        /* \"#utility.yul\":19861:19947   */\n      swap2\n      swap1\n      pop\n      jump\t// out\n        /* \"#utility.yul\":19953:20065   */\n    tag_128:\n        /* \"#utility.yul\":20036:20058   */\n      tag_342\n        /* \"#utility.yul\":20052:20057   */\n      dup2\n        /* \"#utility.yul\":20036:20058   */\n      tag_127\n      jump\t// in\n    tag_342:\n        /* \"#utility.yul\":20031:20034   */\n      dup3\n        /* \"#utility.yul\":20024:20059   */\n      mstore\n        /* \"#utility.yul\":19953:20065   */\n      pop\n      pop\n      jump\t// out\n        /* \"#utility.yul\":20071:20616   */\n    tag_46:\n        /* \"#utility.yul\":20244:20248   */\n      0x00\n        /* \"#utility.yul\":20282:20285   */\n      0x80\n        /* \"#utility.yul\":20271:20280   */\n      dup3\n        /* \"#utility.yul\":20267:20286   */\n      add\n        /* \"#utility.yul\":20259:20286   */\n      swap1\n      pop\n        /* \"#utility.yul\":20296:20367   */\n      tag_344\n        /* \"#utility.yul\":20364:20365   */\n      0x00\n        /* \"#utility.yul\":20353:20362   */\n      dup4\n        /* \"#utility.yul\":20349:20366   */\n      add\n        /* \"#utility.yul\":20340:20346   */\n      dup8\n        /* \"#utility.yul\":20296:20367   */\n      tag_126\n      jump\t// in\n    tag_344:\n        /* \"#utility.yul\":20377:20445   */\n      tag_345\n        /* \"#utility.yul\":20441:20443   */\n      0x20\n        /* \"#utility.yul\":20430:20439   */\n      dup4\n        /* \"#utility.yul\":20426:20444   */\n      add\n        /* \"#utility.yul\":20417:20423   */\n      dup7\n        /* \"#utility.yul\":20377:20445   */\n      tag_128\n      jump\t// in\n    tag_345:\n        /* \"#utility.yul\":20455:20527   */\n      tag_346\n        /* \"#utility.yul\":20523:20525   */\n      0x40\n        /* \"#utility.yul\":20512:20521   */\n      dup4\n        /* \"#utility.yul\":20508:20526   */\n      add\n        /* \"#utility.yul\":20499:20505   */\n      dup6\n        /* \"#utility.yul\":20455:20527   */\n      tag_126\n      jump\t// in\n    tag_346:\n        /* \"#utility.yul\":20537:20609   */\n      tag_347\n        /* \"#utility.yul\":20605:20607   */\n      0x60\n        /* \"#utility.yul\":20594:20603   */\n      dup4\n        /* \"#utility.yul\":20590:20608   */\n      add\n        /* \"#utility.yul\":20581:20587   */\n      dup5\n        /* \"#utility.yul\":20537:20609   */\n      tag_126\n      jump\t// in\n    tag_347:\n        /* \"#utility.yul\":20071:20616   */\n      swap6\n      swap5\n      pop\n      pop\n      pop\n      pop\n      pop\n      jump\t// out\n        /* \"#utility.yul\":20622:20802   */\n    tag_59:\n        /* \"#utility.yul\":20670:20747   */\n      0x4e487b7100000000000000000000000000000000000000000000000000000000\n        /* \"#utility.yul\":20667:20668   */\n      0x00\n        /* \"#utility.yul\":20660:20748   */\n      mstore\n        /* \"#utility.yul\":20767:20771   */\n      0x32\n        /* \"#utility.yul\":20764:20765   */\n      0x04\n        /* \"#utility.yul\":20757:20772   */\n      mstore\n        /* \"#utility.yul\":20791:20795   */\n      0x24\n        /* \"#utility.yul\":20788:20789   */\n      0x00\n        /* \"#utility.yul\":20781:20796   */\n      revert\n\n    auxdata: 0xa2646970667358221220751918f04a8d22d567d044b377728207b84a66a6f1c41839ede32f3783a3eee864736f6c63430008190033\n}\n",
				"bytecode": {
					"linkReferences": {},
					"object": "6080604052348015600e575f80fd5b50610ebf8061001c5f395ff3fe608060405234801561000f575f80fd5b5060043610610034575f3560e01c80638b214a4314610038578063fb7fd41c14610068575b5f80fd5b610052600480360381019061004d9190610634565b610084565b60405161005f91906106d6565b60405180910390f35b610082600480360381019061007d919061078d565b61021c565b005b5f80610136855f876040516100999190610867565b908152602001604051809103902060020180546100b5906108aa565b80601f01602080910402602001604051908101604052809291908181526020018280546100e1906108aa565b801561012c5780601f106101035761010080835404028352916020019161012c565b820191905f5260205f20905b81548152906001019060200180831161010f57829003601f168201915b5050505050610290565b90505f73ffffffffffffffffffffffffffffffffffffffff168173ffffffffffffffffffffffffffffffffffffffff16036101a6576040517f08c379a000000000000000000000000000000000000000000000000000000000815260040161019d90610934565b60405180910390fd5b6101d1845f876040516101b99190610867565b9081526020016040518091039020600101548561034e565b610210576040517f08c379a00000000000000000000000000000000000000000000000000000000081526004016102079061099c565b60405180910390fd5b60019150509392505050565b6040518060600160405280848152602001838152602001828152505f846040516102469190610867565b90815260200160405180910390205f820151815f0190816102679190610b60565b506020820151816001015560408201518160020190816102879190610c91565b50905050505050565b5f805f80602085015192506040850151915060608501515f1a90506001866040516020016102be9190610867565b604051602081830303815290604052805190602001206040516020016102e49190610dca565b604051602081830303815290604052805190602001208285856040515f81526020016040526040516103199493929190610e19565b6020604051602081039080840390855afa158015610339573d5f803e3d5ffd5b50505060206040510351935050505092915050565b5f8261035a8584610364565b1490509392505050565b5f808290505f5b84518110156103a7576103988286838151811061038b5761038a610e5c565b5b60200260200101516103b2565b9150808060010191505061036b565b508091505092915050565b5f8183106103c9576103c482846103dc565b6103d4565b6103d383836103dc565b5b905092915050565b5f825f528160205260405f20905092915050565b5f604051905090565b5f80fd5b5f80fd5b5f80fd5b5f80fd5b5f601f19601f8301169050919050565b7f4e487b71000000000000000000000000000000000000000000000000000000005f52604160045260245ffd5b61044f82610409565b810181811067ffffffffffffffff8211171561046e5761046d610419565b5b80604052505050565b5f6104806103f0565b905061048c8282610446565b919050565b5f67ffffffffffffffff8211156104ab576104aa610419565b5b6104b482610409565b9050602081019050919050565b828183375f83830152505050565b5f6104e16104dc84610491565b610477565b9050828152602081018484840111156104fd576104fc610405565b5b6105088482856104c1565b509392505050565b5f82601f83011261052457610523610401565b5b81356105348482602086016104cf565b91505092915050565b5f67ffffffffffffffff82111561055757610556610419565b5b602082029050602081019050919050565b5f80fd5b5f819050919050565b61057e8161056c565b8114610588575f80fd5b50565b5f8135905061059981610575565b92915050565b5f6105b16105ac8461053d565b610477565b905080838252602082019050602084028301858111156105d4576105d3610568565b5b835b818110156105fd57806105e9888261058b565b8452602084019350506020810190506105d6565b5050509392505050565b5f82601f83011261061b5761061a610401565b5b813561062b84826020860161059f565b91505092915050565b5f805f6060848603121561064b5761064a6103f9565b5b5f84013567ffffffffffffffff811115610668576106676103fd565b5b61067486828701610510565b935050602084013567ffffffffffffffff811115610695576106946103fd565b5b6106a186828701610607565b92505060406106b28682870161058b565b9150509250925092565b5f8115159050919050565b6106d0816106bc565b82525050565b5f6020820190506106e95f8301846106c7565b92915050565b5f67ffffffffffffffff82111561070957610708610419565b5b61071282610409565b9050602081019050919050565b5f61073161072c846106ef565b610477565b90508281526020810184848401111561074d5761074c610405565b5b6107588482856104c1565b509392505050565b5f82601f83011261077457610773610401565b5b813561078484826020860161071f565b91505092915050565b5f805f606084860312156107a4576107a36103f9565b5b5f84013567ffffffffffffffff8111156107c1576107c06103fd565b5b6107cd86828701610510565b93505060206107de8682870161058b565b925050604084013567ffffffffffffffff8111156107ff576107fe6103fd565b5b61080b86828701610760565b9150509250925092565b5f81519050919050565b5f81905092915050565b8281835e5f83830152505050565b5f61084182610815565b61084b818561081f565b935061085b818560208601610829565b80840191505092915050565b5f6108728284610837565b915081905092915050565b7f4e487b71000000000000000000000000000000000000000000000000000000005f52602260045260245ffd5b5f60028204905060018216806108c157607f821691505b6020821081036108d4576108d361087d565b5b50919050565b5f82825260208201905092915050565b7f4669726d61206e6f2076616c69646100000000000000000000000000000000005f82015250565b5f61091e600f836108da565b9150610929826108ea565b602082019050919050565b5f6020820190508181035f83015261094b81610912565b9050919050565b7f507275656261206465204d65726b6c65206e6f2076616c6964610000000000005f82015250565b5f610986601a836108da565b915061099182610952565b602082019050919050565b5f6020820190508181035f8301526109b38161097a565b9050919050565b5f819050815f5260205f209050919050565b5f6020601f8301049050919050565b5f82821b905092915050565b5f60088302610a167fffffffffffffffffffffffffffffffffffffffffffffffffffffffffffffffff826109db565b610a2086836109db565b95508019841693508086168417925050509392505050565b5f819050919050565b5f819050919050565b5f610a64610a5f610a5a84610a38565b610a41565b610a38565b9050919050565b5f819050919050565b610a7d83610a4a565b610a91610a8982610a6b565b8484546109e7565b825550505050565b5f90565b610aa5610a99565b610ab0818484610a74565b505050565b5b81811015610ad357610ac85f82610a9d565b600181019050610ab6565b5050565b601f821115610b1857610ae9816109ba565b610af2846109cc565b81016020851015610b01578190505b610b15610b0d856109cc565b830182610ab5565b50505b505050565b5f82821c905092915050565b5f610b385f1984600802610b1d565b1980831691505092915050565b5f610b508383610b29565b9150826002028217905092915050565b610b6982610815565b67ffffffffffffffff811115610b8257610b81610419565b5b610b8c82546108aa565b610b97828285610ad7565b5f60209050601f831160018114610bc8575f8415610bb6578287015190505b610bc08582610b45565b865550610c27565b601f198416610bd6866109ba565b5f5b82811015610bfd57848901518255600182019150602085019450602081019050610bd8565b86831015610c1a5784890151610c16601f891682610b29565b8355505b6001600288020188555050505b505050505050565b5f81519050919050565b5f819050815f5260205f209050919050565b601f821115610c8c57610c5d81610c39565b610c66846109cc565b81016020851015610c75578190505b610c89610c81856109cc565b830182610ab5565b50505b505050565b610c9a82610c2f565b67ffffffffffffffff811115610cb357610cb2610419565b5b610cbd82546108aa565b610cc8828285610c4b565b5f60209050601f831160018114610cf9575f8415610ce7578287015190505b610cf18582610b45565b865550610d58565b601f198416610d0786610c39565b5f5b82811015610d2e57848901518255600182019150602085019450602081019050610d09565b86831015610d4b5784890151610d47601f891682610b29565b8355505b6001600288020188555050505b505050505050565b7f19457468657265756d205369676e6564204d6573736167653a0a3332000000005f82015250565b5f610d94601c8361081f565b9150610d9f82610d60565b601c82019050919050565b5f819050919050565b610dc4610dbf8261056c565b610daa565b82525050565b5f610dd482610d88565b9150610de08284610db3565b60208201915081905092915050565b610df88161056c565b82525050565b5f60ff82169050919050565b610e1381610dfe565b82525050565b5f608082019050610e2c5f830187610def565b610e396020830186610e0a565b610e466040830185610def565b610e536060830184610def565b95945050505050565b7f4e487b71000000000000000000000000000000000000000000000000000000005f52603260045260245ffdfea2646970667358221220751918f04a8d22d567d044b377728207b84a66a6f1c41839ede32f3783a3eee864736f6c63430008190033",
					"opcodes": "PUSH1 0x80 PUSH1 0x40 MSTORE CALLVALUE DUP1 ISZERO PUSH1 0xE JUMPI PUSH0 DUP1 REVERT JUMPDEST POP PUSH2 0xEBF DUP1 PUSH2 0x1C PUSH0 CODECOPY PUSH0 RETURN INVALID PUSH1 0x80 PUSH1 0x40 MSTORE CALLVALUE DUP1 ISZERO PUSH2 0xF JUMPI PUSH0 DUP1 REVERT JUMPDEST POP PUSH1 0x4 CALLDATASIZE LT PUSH2 0x34 JUMPI PUSH0 CALLDATALOAD PUSH1 0xE0 SHR DUP1 PUSH4 0x8B214A43 EQ PUSH2 0x38 JUMPI DUP1 PUSH4 0xFB7FD41C EQ PUSH2 0x68 JUMPI JUMPDEST PUSH0 DUP1 REVERT JUMPDEST PUSH2 0x52 PUSH1 0x4 DUP1 CALLDATASIZE SUB DUP2 ADD SWAP1 PUSH2 0x4D SWAP2 SWAP1 PUSH2 0x634 JUMP JUMPDEST PUSH2 0x84 JUMP JUMPDEST PUSH1 0x40 MLOAD PUSH2 0x5F SWAP2 SWAP1 PUSH2 0x6D6 JUMP JUMPDEST PUSH1 0x40 MLOAD DUP1 SWAP2 SUB SWAP1 RETURN JUMPDEST PUSH2 0x82 PUSH1 0x4 DUP1 CALLDATASIZE SUB DUP2 ADD SWAP1 PUSH2 0x7D SWAP2 SWAP1 PUSH2 0x78D JUMP JUMPDEST PUSH2 0x21C JUMP JUMPDEST STOP JUMPDEST PUSH0 DUP1 PUSH2 0x136 DUP6 PUSH0 DUP8 PUSH1 0x40 MLOAD PUSH2 0x99 SWAP2 SWAP1 PUSH2 0x867 JUMP JUMPDEST SWAP1 DUP2 MSTORE PUSH1 0x20 ADD PUSH1 0x40 MLOAD DUP1 SWAP2 SUB SWAP1 KECCAK256 PUSH1 0x2 ADD DUP1 SLOAD PUSH2 0xB5 SWAP1 PUSH2 0x8AA JUMP JUMPDEST DUP1 PUSH1 0x1F ADD PUSH1 0x20 DUP1 SWAP2 DIV MUL PUSH1 0x20 ADD PUSH1 0x40 MLOAD SWAP1 DUP2 ADD PUSH1 0x40 MSTORE DUP1 SWAP3 SWAP2 SWAP1 DUP2 DUP2 MSTORE PUSH1 0x20 ADD DUP3 DUP1 SLOAD PUSH2 0xE1 SWAP1 PUSH2 0x8AA JUMP JUMPDEST DUP1 ISZERO PUSH2 0x12C JUMPI DUP1 PUSH1 0x1F LT PUSH2 0x103 JUMPI PUSH2 0x100 DUP1 DUP4 SLOAD DIV MUL DUP4 MSTORE SWAP2 PUSH1 0x20 ADD SWAP2 PUSH2 0x12C JUMP JUMPDEST DUP3 ADD SWAP2 SWAP1 PUSH0 MSTORE PUSH1 0x20 PUSH0 KECCAK256 SWAP1 JUMPDEST DUP2 SLOAD DUP2 MSTORE SWAP1 PUSH1 0x1 ADD SWAP1 PUSH1 0x20 ADD DUP1 DUP4 GT PUSH2 0x10F JUMPI DUP3 SWAP1 SUB PUSH1 0x1F AND DUP3 ADD SWAP2 JUMPDEST POP POP POP POP POP PUSH2 0x290 JUMP JUMPDEST SWAP1 POP PUSH0 PUSH20 0xFFFFFFFFFFFFFFFFFFFFFFFFFFFFFFFFFFFFFFFF AND DUP2 PUSH20 0xFFFFFFFFFFFFFFFFFFFFFFFFFFFFFFFFFFFFFFFF AND SUB PUSH2 0x1A6 JUMPI PUSH1 0x40 MLOAD PUSH32 0x8C379A000000000000000000000000000000000000000000000000000000000 DUP2 MSTORE PUSH1 0x4 ADD PUSH2 0x19D SWAP1 PUSH2 0x934 JUMP JUMPDEST PUSH1 0x40 MLOAD DUP1 SWAP2 SUB SWAP1 REVERT JUMPDEST PUSH2 0x1D1 DUP5 PUSH0 DUP8 PUSH1 0x40 MLOAD PUSH2 0x1B9 SWAP2 SWAP1 PUSH2 0x867 JUMP JUMPDEST SWAP1 DUP2 MSTORE PUSH1 0x20 ADD PUSH1 0x40 MLOAD DUP1 SWAP2 SUB SWAP1 KECCAK256 PUSH1 0x1 ADD SLOAD DUP6 PUSH2 0x34E JUMP JUMPDEST PUSH2 0x210 JUMPI PUSH1 0x40 MLOAD PUSH32 0x8C379A000000000000000000000000000000000000000000000000000000000 DUP2 MSTORE PUSH1 0x4 ADD PUSH2 0x207 SWAP1 PUSH2 0x99C JUMP JUMPDEST PUSH1 0x40 MLOAD DUP1 SWAP2 SUB SWAP1 REVERT JUMPDEST PUSH1 0x1 SWAP2 POP POP SWAP4 SWAP3 POP POP POP JUMP JUMPDEST PUSH1 0x40 MLOAD DUP1 PUSH1 0x60 ADD PUSH1 0x40 MSTORE DUP1 DUP5 DUP2 MSTORE PUSH1 0x20 ADD DUP4 DUP2 MSTORE PUSH1 0x20 ADD DUP3 DUP2 MSTORE POP PUSH0 DUP5 PUSH1 0x40 MLOAD PUSH2 0x246 SWAP2 SWAP1 PUSH2 0x867 JUMP JUMPDEST SWAP1 DUP2 MSTORE PUSH1 0x20 ADD PUSH1 0x40 MLOAD DUP1 SWAP2 SUB SWAP1 KECCAK256 PUSH0 DUP3 ADD MLOAD DUP2 PUSH0 ADD SWAP1 DUP2 PUSH2 0x267 SWAP2 SWAP1 PUSH2 0xB60 JUMP JUMPDEST POP PUSH1 0x20 DUP3 ADD MLOAD DUP2 PUSH1 0x1 ADD SSTORE PUSH1 0x40 DUP3 ADD MLOAD DUP2 PUSH1 0x2 ADD SWAP1 DUP2 PUSH2 0x287 SWAP2 SWAP1 PUSH2 0xC91 JUMP JUMPDEST POP SWAP1 POP POP POP POP POP JUMP JUMPDEST PUSH0 DUP1 PUSH0 DUP1 PUSH1 0x20 DUP6 ADD MLOAD SWAP3 POP PUSH1 0x40 DUP6 ADD MLOAD SWAP2 POP PUSH1 0x60 DUP6 ADD MLOAD PUSH0 BYTE SWAP1 POP PUSH1 0x1 DUP7 PUSH1 0x40 MLOAD PUSH1 0x20 ADD PUSH2 0x2BE SWAP2 SWAP1 PUSH2 0x867 JUMP JUMPDEST PUSH1 0x40 MLOAD PUSH1 0x20 DUP2 DUP4 SUB SUB DUP2 MSTORE SWAP1 PUSH1 0x40 MSTORE DUP1 MLOAD SWAP1 PUSH1 0x20 ADD KECCAK256 PUSH1 0x40 MLOAD PUSH1 0x20 ADD PUSH2 0x2E4 SWAP2 SWAP1 PUSH2 0xDCA JUMP JUMPDEST PUSH1 0x40 MLOAD PUSH1 0x20 DUP2 DUP4 SUB SUB DUP2 MSTORE SWAP1 PUSH1 0x40 MSTORE DUP1 MLOAD SWAP1 PUSH1 0x20 ADD KECCAK256 DUP3 DUP6 DUP6 PUSH1 0x40 MLOAD PUSH0 DUP2 MSTORE PUSH1 0x20 ADD PUSH1 0x40 MSTORE PUSH1 0x40 MLOAD PUSH2 0x319 SWAP5 SWAP4 SWAP3 SWAP2 SWAP1 PUSH2 0xE19 JUMP JUMPDEST PUSH1 0x20 PUSH1 0x40 MLOAD PUSH1 0x20 DUP2 SUB SWAP1 DUP1 DUP5 SUB SWAP1 DUP6 GAS STATICCALL ISZERO DUP1 ISZERO PUSH2 0x339 JUMPI RETURNDATASIZE PUSH0 DUP1 RETURNDATACOPY RETURNDATASIZE PUSH0 REVERT JUMPDEST POP POP POP PUSH1 0x20 PUSH1 0x40 MLOAD SUB MLOAD SWAP4 POP POP POP POP SWAP3 SWAP2 POP POP JUMP JUMPDEST PUSH0 DUP3 PUSH2 0x35A DUP6 DUP5 PUSH2 0x364 JUMP JUMPDEST EQ SWAP1 POP SWAP4 SWAP3 POP POP POP JUMP JUMPDEST PUSH0 DUP1 DUP3 SWAP1 POP PUSH0 JUMPDEST DUP5 MLOAD DUP2 LT ISZERO PUSH2 0x3A7 JUMPI PUSH2 0x398 DUP3 DUP7 DUP4 DUP2 MLOAD DUP2 LT PUSH2 0x38B JUMPI PUSH2 0x38A PUSH2 0xE5C JUMP JUMPDEST JUMPDEST PUSH1 0x20 MUL PUSH1 0x20 ADD ADD MLOAD PUSH2 0x3B2 JUMP JUMPDEST SWAP2 POP DUP1 DUP1 PUSH1 0x1 ADD SWAP2 POP POP PUSH2 0x36B JUMP JUMPDEST POP DUP1 SWAP2 POP POP SWAP3 SWAP2 POP POP JUMP JUMPDEST PUSH0 DUP2 DUP4 LT PUSH2 0x3C9 JUMPI PUSH2 0x3C4 DUP3 DUP5 PUSH2 0x3DC JUMP JUMPDEST PUSH2 0x3D4 JUMP JUMPDEST PUSH2 0x3D3 DUP4 DUP4 PUSH2 0x3DC JUMP JUMPDEST JUMPDEST SWAP1 POP SWAP3 SWAP2 POP POP JUMP JUMPDEST PUSH0 DUP3 PUSH0 MSTORE DUP2 PUSH1 0x20 MSTORE PUSH1 0x40 PUSH0 KECCAK256 SWAP1 POP SWAP3 SWAP2 POP POP JUMP JUMPDEST PUSH0 PUSH1 0x40 MLOAD SWAP1 POP SWAP1 JUMP JUMPDEST PUSH0 DUP1 REVERT JUMPDEST PUSH0 DUP1 REVERT JUMPDEST PUSH0 DUP1 REVERT JUMPDEST PUSH0 DUP1 REVERT JUMPDEST PUSH0 PUSH1 0x1F NOT PUSH1 0x1F DUP4 ADD AND SWAP1 POP SWAP2 SWAP1 POP JUMP JUMPDEST PUSH32 0x4E487B7100000000000000000000000000000000000000000000000000000000 PUSH0 MSTORE PUSH1 0x41 PUSH1 0x4 MSTORE PUSH1 0x24 PUSH0 REVERT JUMPDEST PUSH2 0x44F DUP3 PUSH2 0x409 JUMP JUMPDEST DUP2 ADD DUP2 DUP2 LT PUSH8 0xFFFFFFFFFFFFFFFF DUP3 GT OR ISZERO PUSH2 0x46E JUMPI PUSH2 0x46D PUSH2 0x419 JUMP JUMPDEST JUMPDEST DUP1 PUSH1 0x40 MSTORE POP POP POP JUMP JUMPDEST PUSH0 PUSH2 0x480 PUSH2 0x3F0 JUMP JUMPDEST SWAP1 POP PUSH2 0x48C DUP3 DUP3 PUSH2 0x446 JUMP JUMPDEST SWAP2 SWAP1 POP JUMP JUMPDEST PUSH0 PUSH8 0xFFFFFFFFFFFFFFFF DUP3 GT ISZERO PUSH2 0x4AB JUMPI PUSH2 0x4AA PUSH2 0x419 JUMP JUMPDEST JUMPDEST PUSH2 0x4B4 DUP3 PUSH2 0x409 JUMP JUMPDEST SWAP1 POP PUSH1 0x20 DUP2 ADD SWAP1 POP SWAP2 SWAP1 POP JUMP JUMPDEST DUP3 DUP2 DUP4 CALLDATACOPY PUSH0 DUP4 DUP4 ADD MSTORE POP POP POP JUMP JUMPDEST PUSH0 PUSH2 0x4E1 PUSH2 0x4DC DUP5 PUSH2 0x491 JUMP JUMPDEST PUSH2 0x477 JUMP JUMPDEST SWAP1 POP DUP3 DUP2 MSTORE PUSH1 0x20 DUP2 ADD DUP5 DUP5 DUP5 ADD GT ISZERO PUSH2 0x4FD JUMPI PUSH2 0x4FC PUSH2 0x405 JUMP JUMPDEST JUMPDEST PUSH2 0x508 DUP5 DUP3 DUP6 PUSH2 0x4C1 JUMP JUMPDEST POP SWAP4 SWAP3 POP POP POP JUMP JUMPDEST PUSH0 DUP3 PUSH1 0x1F DUP4 ADD SLT PUSH2 0x524 JUMPI PUSH2 0x523 PUSH2 0x401 JUMP JUMPDEST JUMPDEST DUP2 CALLDATALOAD PUSH2 0x534 DUP5 DUP3 PUSH1 0x20 DUP7 ADD PUSH2 0x4CF JUMP JUMPDEST SWAP2 POP POP SWAP3 SWAP2 POP POP JUMP JUMPDEST PUSH0 PUSH8 0xFFFFFFFFFFFFFFFF DUP3 GT ISZERO PUSH2 0x557 JUMPI PUSH2 0x556 PUSH2 0x419 JUMP JUMPDEST JUMPDEST PUSH1 0x20 DUP3 MUL SWAP1 POP PUSH1 0x20 DUP2 ADD SWAP1 POP SWAP2 SWAP1 POP JUMP JUMPDEST PUSH0 DUP1 REVERT JUMPDEST PUSH0 DUP2 SWAP1 POP SWAP2 SWAP1 POP JUMP JUMPDEST PUSH2 0x57E DUP2 PUSH2 0x56C JUMP JUMPDEST DUP2 EQ PUSH2 0x588 JUMPI PUSH0 DUP1 REVERT JUMPDEST POP JUMP JUMPDEST PUSH0 DUP2 CALLDATALOAD SWAP1 POP PUSH2 0x599 DUP2 PUSH2 0x575 JUMP JUMPDEST SWAP3 SWAP2 POP POP JUMP JUMPDEST PUSH0 PUSH2 0x5B1 PUSH2 0x5AC DUP5 PUSH2 0x53D JUMP JUMPDEST PUSH2 0x477 JUMP JUMPDEST SWAP1 POP DUP1 DUP4 DUP3 MSTORE PUSH1 0x20 DUP3 ADD SWAP1 POP PUSH1 0x20 DUP5 MUL DUP4 ADD DUP6 DUP2 GT ISZERO PUSH2 0x5D4 JUMPI PUSH2 0x5D3 PUSH2 0x568 JUMP JUMPDEST JUMPDEST DUP4 JUMPDEST DUP2 DUP2 LT ISZERO PUSH2 0x5FD JUMPI DUP1 PUSH2 0x5E9 DUP9 DUP3 PUSH2 0x58B JUMP JUMPDEST DUP5 MSTORE PUSH1 0x20 DUP5 ADD SWAP4 POP POP PUSH1 0x20 DUP2 ADD SWAP1 POP PUSH2 0x5D6 JUMP JUMPDEST POP POP POP SWAP4 SWAP3 POP POP POP JUMP JUMPDEST PUSH0 DUP3 PUSH1 0x1F DUP4 ADD SLT PUSH2 0x61B JUMPI PUSH2 0x61A PUSH2 0x401 JUMP JUMPDEST JUMPDEST DUP2 CALLDATALOAD PUSH2 0x62B DUP5 DUP3 PUSH1 0x20 DUP7 ADD PUSH2 0x59F JUMP JUMPDEST SWAP2 POP POP SWAP3 SWAP2 POP POP JUMP JUMPDEST PUSH0 DUP1 PUSH0 PUSH1 0x60 DUP5 DUP7 SUB SLT ISZERO PUSH2 0x64B JUMPI PUSH2 0x64A PUSH2 0x3F9 JUMP JUMPDEST JUMPDEST PUSH0 DUP5 ADD CALLDATALOAD PUSH8 0xFFFFFFFFFFFFFFFF DUP2 GT ISZERO PUSH2 0x668 JUMPI PUSH2 0x667 PUSH2 0x3FD JUMP JUMPDEST JUMPDEST PUSH2 0x674 DUP7 DUP3 DUP8 ADD PUSH2 0x510 JUMP JUMPDEST SWAP4 POP POP PUSH1 0x20 DUP5 ADD CALLDATALOAD PUSH8 0xFFFFFFFFFFFFFFFF DUP2 GT ISZERO PUSH2 0x695 JUMPI PUSH2 0x694 PUSH2 0x3FD JUMP JUMPDEST JUMPDEST PUSH2 0x6A1 DUP7 DUP3 DUP8 ADD PUSH2 0x607 JUMP JUMPDEST SWAP3 POP POP PUSH1 0x40 PUSH2 0x6B2 DUP7 DUP3 DUP8 ADD PUSH2 0x58B JUMP JUMPDEST SWAP2 POP POP SWAP3 POP SWAP3 POP SWAP3 JUMP JUMPDEST PUSH0 DUP2 ISZERO ISZERO SWAP1 POP SWAP2 SWAP1 POP JUMP JUMPDEST PUSH2 0x6D0 DUP2 PUSH2 0x6BC JUMP JUMPDEST DUP3 MSTORE POP POP JUMP JUMPDEST PUSH0 PUSH1 0x20 DUP3 ADD SWAP1 POP PUSH2 0x6E9 PUSH0 DUP4 ADD DUP5 PUSH2 0x6C7 JUMP JUMPDEST SWAP3 SWAP2 POP POP JUMP JUMPDEST PUSH0 PUSH8 0xFFFFFFFFFFFFFFFF DUP3 GT ISZERO PUSH2 0x709 JUMPI PUSH2 0x708 PUSH2 0x419 JUMP JUMPDEST JUMPDEST PUSH2 0x712 DUP3 PUSH2 0x409 JUMP JUMPDEST SWAP1 POP PUSH1 0x20 DUP2 ADD SWAP1 POP SWAP2 SWAP1 POP JUMP JUMPDEST PUSH0 PUSH2 0x731 PUSH2 0x72C DUP5 PUSH2 0x6EF JUMP JUMPDEST PUSH2 0x477 JUMP JUMPDEST SWAP1 POP DUP3 DUP2 MSTORE PUSH1 0x20 DUP2 ADD DUP5 DUP5 DUP5 ADD GT ISZERO PUSH2 0x74D JUMPI PUSH2 0x74C PUSH2 0x405 JUMP JUMPDEST JUMPDEST PUSH2 0x758 DUP5 DUP3 DUP6 PUSH2 0x4C1 JUMP JUMPDEST POP SWAP4 SWAP3 POP POP POP JUMP JUMPDEST PUSH0 DUP3 PUSH1 0x1F DUP4 ADD SLT PUSH2 0x774 JUMPI PUSH2 0x773 PUSH2 0x401 JUMP JUMPDEST JUMPDEST DUP2 CALLDATALOAD PUSH2 0x784 DUP5 DUP3 PUSH1 0x20 DUP7 ADD PUSH2 0x71F JUMP JUMPDEST SWAP2 POP POP SWAP3 SWAP2 POP POP JUMP JUMPDEST PUSH0 DUP1 PUSH0 PUSH1 0x60 DUP5 DUP7 SUB SLT ISZERO PUSH2 0x7A4 JUMPI PUSH2 0x7A3 PUSH2 0x3F9 JUMP JUMPDEST JUMPDEST PUSH0 DUP5 ADD CALLDATALOAD PUSH8 0xFFFFFFFFFFFFFFFF DUP2 GT ISZERO PUSH2 0x7C1 JUMPI PUSH2 0x7C0 PUSH2 0x3FD JUMP JUMPDEST JUMPDEST PUSH2 0x7CD DUP7 DUP3 DUP8 ADD PUSH2 0x510 JUMP JUMPDEST SWAP4 POP POP PUSH1 0x20 PUSH2 0x7DE DUP7 DUP3 DUP8 ADD PUSH2 0x58B JUMP JUMPDEST SWAP3 POP POP PUSH1 0x40 DUP5 ADD CALLDATALOAD PUSH8 0xFFFFFFFFFFFFFFFF DUP2 GT ISZERO PUSH2 0x7FF JUMPI PUSH2 0x7FE PUSH2 0x3FD JUMP JUMPDEST JUMPDEST PUSH2 0x80B DUP7 DUP3 DUP8 ADD PUSH2 0x760 JUMP JUMPDEST SWAP2 POP POP SWAP3 POP SWAP3 POP SWAP3 JUMP JUMPDEST PUSH0 DUP2 MLOAD SWAP1 POP SWAP2 SWAP1 POP JUMP JUMPDEST PUSH0 DUP2 SWAP1 POP SWAP3 SWAP2 POP POP JUMP JUMPDEST DUP3 DUP2 DUP4 MCOPY PUSH0 DUP4 DUP4 ADD MSTORE POP POP POP JUMP JUMPDEST PUSH0 PUSH2 0x841 DUP3 PUSH2 0x815 JUMP JUMPDEST PUSH2 0x84B DUP2 DUP6 PUSH2 0x81F JUMP JUMPDEST SWAP4 POP PUSH2 0x85B DUP2 DUP6 PUSH1 0x20 DUP7 ADD PUSH2 0x829 JUMP JUMPDEST DUP1 DUP5 ADD SWAP2 POP POP SWAP3 SWAP2 POP POP JUMP JUMPDEST PUSH0 PUSH2 0x872 DUP3 DUP5 PUSH2 0x837 JUMP JUMPDEST SWAP2 POP DUP2 SWAP1 POP SWAP3 SWAP2 POP POP JUMP JUMPDEST PUSH32 0x4E487B7100000000000000000000000000000000000000000000000000000000 PUSH0 MSTORE PUSH1 0x22 PUSH1 0x4 MSTORE PUSH1 0x24 PUSH0 REVERT JUMPDEST PUSH0 PUSH1 0x2 DUP3 DIV SWAP1 POP PUSH1 0x1 DUP3 AND DUP1 PUSH2 0x8C1 JUMPI PUSH1 0x7F DUP3 AND SWAP2 POP JUMPDEST PUSH1 0x20 DUP3 LT DUP2 SUB PUSH2 0x8D4 JUMPI PUSH2 0x8D3 PUSH2 0x87D JUMP JUMPDEST JUMPDEST POP SWAP2 SWAP1 POP JUMP JUMPDEST PUSH0 DUP3 DUP3 MSTORE PUSH1 0x20 DUP3 ADD SWAP1 POP SWAP3 SWAP2 POP POP JUMP JUMPDEST PUSH32 0x4669726D61206E6F2076616C6964610000000000000000000000000000000000 PUSH0 DUP3 ADD MSTORE POP JUMP JUMPDEST PUSH0 PUSH2 0x91E PUSH1 0xF DUP4 PUSH2 0x8DA JUMP JUMPDEST SWAP2 POP PUSH2 0x929 DUP3 PUSH2 0x8EA JUMP JUMPDEST PUSH1 0x20 DUP3 ADD SWAP1 POP SWAP2 SWAP1 POP JUMP JUMPDEST PUSH0 PUSH1 0x20 DUP3 ADD SWAP1 POP DUP2 DUP2 SUB PUSH0 DUP4 ADD MSTORE PUSH2 0x94B DUP2 PUSH2 0x912 JUMP JUMPDEST SWAP1 POP SWAP2 SWAP1 POP JUMP JUMPDEST PUSH32 0x507275656261206465204D65726B6C65206E6F2076616C696461000000000000 PUSH0 DUP3 ADD MSTORE POP JUMP JUMPDEST PUSH0 PUSH2 0x986 PUSH1 0x1A DUP4 PUSH2 0x8DA JUMP JUMPDEST SWAP2 POP PUSH2 0x991 DUP3 PUSH2 0x952 JUMP JUMPDEST PUSH1 0x20 DUP3 ADD SWAP1 POP SWAP2 SWAP1 POP JUMP JUMPDEST PUSH0 PUSH1 0x20 DUP3 ADD SWAP1 POP DUP2 DUP2 SUB PUSH0 DUP4 ADD MSTORE PUSH2 0x9B3 DUP2 PUSH2 0x97A JUMP JUMPDEST SWAP1 POP SWAP2 SWAP1 POP JUMP JUMPDEST PUSH0 DUP2 SWAP1 POP DUP2 PUSH0 MSTORE PUSH1 0x20 PUSH0 KECCAK256 SWAP1 POP SWAP2 SWAP1 POP JUMP JUMPDEST PUSH0 PUSH1 0x20 PUSH1 0x1F DUP4 ADD DIV SWAP1 POP SWAP2 SWAP1 POP JUMP JUMPDEST PUSH0 DUP3 DUP3 SHL SWAP1 POP SWAP3 SWAP2 POP POP JUMP JUMPDEST PUSH0 PUSH1 0x8 DUP4 MUL PUSH2 0xA16 PUSH32 0xFFFFFFFFFFFFFFFFFFFFFFFFFFFFFFFFFFFFFFFFFFFFFFFFFFFFFFFFFFFFFFFF DUP3 PUSH2 0x9DB JUMP JUMPDEST PUSH2 0xA20 DUP7 DUP4 PUSH2 0x9DB JUMP JUMPDEST SWAP6 POP DUP1 NOT DUP5 AND SWAP4 POP DUP1 DUP7 AND DUP5 OR SWAP3 POP POP POP SWAP4 SWAP3 POP POP POP JUMP JUMPDEST PUSH0 DUP2 SWAP1 POP SWAP2 SWAP1 POP JUMP JUMPDEST PUSH0 DUP2 SWAP1 POP SWAP2 SWAP1 POP JUMP JUMPDEST PUSH0 PUSH2 0xA64 PUSH2 0xA5F PUSH2 0xA5A DUP5 PUSH2 0xA38 JUMP JUMPDEST PUSH2 0xA41 JUMP JUMPDEST PUSH2 0xA38 JUMP JUMPDEST SWAP1 POP SWAP2 SWAP1 POP JUMP JUMPDEST PUSH0 DUP2 SWAP1 POP SWAP2 SWAP1 POP JUMP JUMPDEST PUSH2 0xA7D DUP4 PUSH2 0xA4A JUMP JUMPDEST PUSH2 0xA91 PUSH2 0xA89 DUP3 PUSH2 0xA6B JUMP JUMPDEST DUP5 DUP5 SLOAD PUSH2 0x9E7 JUMP JUMPDEST DUP3 SSTORE POP POP POP POP JUMP JUMPDEST PUSH0 SWAP1 JUMP JUMPDEST PUSH2 0xAA5 PUSH2 0xA99 JUMP JUMPDEST PUSH2 0xAB0 DUP2 DUP5 DUP5 PUSH2 0xA74 JUMP JUMPDEST POP POP POP JUMP JUMPDEST JUMPDEST DUP2 DUP2 LT ISZERO PUSH2 0xAD3 JUMPI PUSH2 0xAC8 PUSH0 DUP3 PUSH2 0xA9D JUMP JUMPDEST PUSH1 0x1 DUP2 ADD SWAP1 POP PUSH2 0xAB6 JUMP JUMPDEST POP POP JUMP JUMPDEST PUSH1 0x1F DUP3 GT ISZERO PUSH2 0xB18 JUMPI PUSH2 0xAE9 DUP2 PUSH2 0x9BA JUMP JUMPDEST PUSH2 0xAF2 DUP5 PUSH2 0x9CC JUMP JUMPDEST DUP2 ADD PUSH1 0x20 DUP6 LT ISZERO PUSH2 0xB01 JUMPI DUP2 SWAP1 POP JUMPDEST PUSH2 0xB15 PUSH2 0xB0D DUP6 PUSH2 0x9CC JUMP JUMPDEST DUP4 ADD DUP3 PUSH2 0xAB5 JUMP JUMPDEST POP POP JUMPDEST POP POP POP JUMP JUMPDEST PUSH0 DUP3 DUP3 SHR SWAP1 POP SWAP3 SWAP2 POP POP JUMP JUMPDEST PUSH0 PUSH2 0xB38 PUSH0 NOT DUP5 PUSH1 0x8 MUL PUSH2 0xB1D JUMP JUMPDEST NOT DUP1 DUP4 AND SWAP2 POP POP SWAP3 SWAP2 POP POP JUMP JUMPDEST PUSH0 PUSH2 0xB50 DUP4 DUP4 PUSH2 0xB29 JUMP JUMPDEST SWAP2 POP DUP3 PUSH1 0x2 MUL DUP3 OR SWAP1 POP SWAP3 SWAP2 POP POP JUMP JUMPDEST PUSH2 0xB69 DUP3 PUSH2 0x815 JUMP JUMPDEST PUSH8 0xFFFFFFFFFFFFFFFF DUP2 GT ISZERO PUSH2 0xB82 JUMPI PUSH2 0xB81 PUSH2 0x419 JUMP JUMPDEST JUMPDEST PUSH2 0xB8C DUP3 SLOAD PUSH2 0x8AA JUMP JUMPDEST PUSH2 0xB97 DUP3 DUP3 DUP6 PUSH2 0xAD7 JUMP JUMPDEST PUSH0 PUSH1 0x20 SWAP1 POP PUSH1 0x1F DUP4 GT PUSH1 0x1 DUP2 EQ PUSH2 0xBC8 JUMPI PUSH0 DUP5 ISZERO PUSH2 0xBB6 JUMPI DUP3 DUP8 ADD MLOAD SWAP1 POP JUMPDEST PUSH2 0xBC0 DUP6 DUP3 PUSH2 0xB45 JUMP JUMPDEST DUP7 SSTORE POP PUSH2 0xC27 JUMP JUMPDEST PUSH1 0x1F NOT DUP5 AND PUSH2 0xBD6 DUP7 PUSH2 0x9BA JUMP JUMPDEST PUSH0 JUMPDEST DUP3 DUP2 LT ISZERO PUSH2 0xBFD JUMPI DUP5 DUP10 ADD MLOAD DUP3 SSTORE PUSH1 0x1 DUP3 ADD SWAP2 POP PUSH1 0x20 DUP6 ADD SWAP5 POP PUSH1 0x20 DUP2 ADD SWAP1 POP PUSH2 0xBD8 JUMP JUMPDEST DUP7 DUP4 LT ISZERO PUSH2 0xC1A JUMPI DUP5 DUP10 ADD MLOAD PUSH2 0xC16 PUSH1 0x1F DUP10 AND DUP3 PUSH2 0xB29 JUMP JUMPDEST DUP4 SSTORE POP JUMPDEST PUSH1 0x1 PUSH1 0x2 DUP9 MUL ADD DUP9 SSTORE POP POP POP JUMPDEST POP POP POP POP POP POP JUMP JUMPDEST PUSH0 DUP2 MLOAD SWAP1 POP SWAP2 SWAP1 POP JUMP JUMPDEST PUSH0 DUP2 SWAP1 POP DUP2 PUSH0 MSTORE PUSH1 0x20 PUSH0 KECCAK256 SWAP1 POP SWAP2 SWAP1 POP JUMP JUMPDEST PUSH1 0x1F DUP3 GT ISZERO PUSH2 0xC8C JUMPI PUSH2 0xC5D DUP2 PUSH2 0xC39 JUMP JUMPDEST PUSH2 0xC66 DUP5 PUSH2 0x9CC JUMP JUMPDEST DUP2 ADD PUSH1 0x20 DUP6 LT ISZERO PUSH2 0xC75 JUMPI DUP2 SWAP1 POP JUMPDEST PUSH2 0xC89 PUSH2 0xC81 DUP6 PUSH2 0x9CC JUMP JUMPDEST DUP4 ADD DUP3 PUSH2 0xAB5 JUMP JUMPDEST POP POP JUMPDEST POP POP POP JUMP JUMPDEST PUSH2 0xC9A DUP3 PUSH2 0xC2F JUMP JUMPDEST PUSH8 0xFFFFFFFFFFFFFFFF DUP2 GT ISZERO PUSH2 0xCB3 JUMPI PUSH2 0xCB2 PUSH2 0x419 JUMP JUMPDEST JUMPDEST PUSH2 0xCBD DUP3 SLOAD PUSH2 0x8AA JUMP JUMPDEST PUSH2 0xCC8 DUP3 DUP3 DUP6 PUSH2 0xC4B JUMP JUMPDEST PUSH0 PUSH1 0x20 SWAP1 POP PUSH1 0x1F DUP4 GT PUSH1 0x1 DUP2 EQ PUSH2 0xCF9 JUMPI PUSH0 DUP5 ISZERO PUSH2 0xCE7 JUMPI DUP3 DUP8 ADD MLOAD SWAP1 POP JUMPDEST PUSH2 0xCF1 DUP6 DUP3 PUSH2 0xB45 JUMP JUMPDEST DUP7 SSTORE POP PUSH2 0xD58 JUMP JUMPDEST PUSH1 0x1F NOT DUP5 AND PUSH2 0xD07 DUP7 PUSH2 0xC39 JUMP JUMPDEST PUSH0 JUMPDEST DUP3 DUP2 LT ISZERO PUSH2 0xD2E JUMPI DUP5 DUP10 ADD MLOAD DUP3 SSTORE PUSH1 0x1 DUP3 ADD SWAP2 POP PUSH1 0x20 DUP6 ADD SWAP5 POP PUSH1 0x20 DUP2 ADD SWAP1 POP PUSH2 0xD09 JUMP JUMPDEST DUP7 DUP4 LT ISZERO PUSH2 0xD4B JUMPI DUP5 DUP10 ADD MLOAD PUSH2 0xD47 PUSH1 0x1F DUP10 AND DUP3 PUSH2 0xB29 JUMP JUMPDEST DUP4 SSTORE POP JUMPDEST PUSH1 0x1 PUSH1 0x2 DUP9 MUL ADD DUP9 SSTORE POP POP POP JUMPDEST POP POP POP POP POP POP JUMP JUMPDEST PUSH32 0x19457468657265756D205369676E6564204D6573736167653A0A333200000000 PUSH0 DUP3 ADD MSTORE POP JUMP JUMPDEST PUSH0 PUSH2 0xD94 PUSH1 0x1C DUP4 PUSH2 0x81F JUMP JUMPDEST SWAP2 POP PUSH2 0xD9F DUP3 PUSH2 0xD60 JUMP JUMPDEST PUSH1 0x1C DUP3 ADD SWAP1 POP SWAP2 SWAP1 POP JUMP JUMPDEST PUSH0 DUP2 SWAP1 POP SWAP2 SWAP1 POP JUMP JUMPDEST PUSH2 0xDC4 PUSH2 0xDBF DUP3 PUSH2 0x56C JUMP JUMPDEST PUSH2 0xDAA JUMP JUMPDEST DUP3 MSTORE POP POP JUMP JUMPDEST PUSH0 PUSH2 0xDD4 DUP3 PUSH2 0xD88 JUMP JUMPDEST SWAP2 POP PUSH2 0xDE0 DUP3 DUP5 PUSH2 0xDB3 JUMP JUMPDEST PUSH1 0x20 DUP3 ADD SWAP2 POP DUP2 SWAP1 POP SWAP3 SWAP2 POP POP JUMP JUMPDEST PUSH2 0xDF8 DUP2 PUSH2 0x56C JUMP JUMPDEST DUP3 MSTORE POP POP JUMP JUMPDEST PUSH0 PUSH1 0xFF DUP3 AND SWAP1 POP SWAP2 SWAP1 POP JUMP JUMPDEST PUSH2 0xE13 DUP2 PUSH2 0xDFE JUMP JUMPDEST DUP3 MSTORE POP POP JUMP JUMPDEST PUSH0 PUSH1 0x80 DUP3 ADD SWAP1 POP PUSH2 0xE2C PUSH0 DUP4 ADD DUP8 PUSH2 0xDEF JUMP JUMPDEST PUSH2 0xE39 PUSH1 0x20 DUP4 ADD DUP7 PUSH2 0xE0A JUMP JUMPDEST PUSH2 0xE46 PUSH1 0x40 DUP4 ADD DUP6 PUSH2 0xDEF JUMP JUMPDEST PUSH2 0xE53 PUSH1 0x60 DUP4 ADD DUP5 PUSH2 0xDEF JUMP JUMPDEST SWAP6 SWAP5 POP POP POP POP POP JUMP JUMPDEST PUSH32 0x4E487B7100000000000000000000000000000000000000000000000000000000 PUSH0 MSTORE PUSH1 0x32 PUSH1 0x4 MSTORE PUSH1 0x24 PUSH0 REVERT INVALID LOG2 PUSH5 0x6970667358 0x22 SLT KECCAK256 PUSH22 0x1918F04A8D22D567D044B377728207B84A66A6F1C418 CODECOPY 0xED 0xE3 0x2F CALLDATACOPY DUP4 LOG3 0xEE 0xE8 PUSH5 0x736F6C6343 STOP ADDMOD NOT STOP CALLER "
				},
				"gasEstimates": {
					"creation": {
						"codeDepositCost": "755000",
						"executionCost": "784",
						"totalCost": "755784"
					},
					"external": {
						"storeCertificate(string,bytes32,bytes)": "infinite",
						"verifyCertificate(string,bytes32[],bytes32)": "infinite"
					},
					"internal": {
						"recoverSigner(string memory,bytes memory)": "infinite"
					}
				},
				"methodIdentifiers": {
					"storeCertificate(string,bytes32,bytes)": "fb7fd41c",
					"verifyCertificate(string,bytes32[],bytes32)": "8b214a43"
				}
			},
			"storageLayout": {
				"storage": [
					{
						"astId": 2315,
						"contract": "CertificadoMigracion.sol:CertificateVerifier",
						"label": "certificates",
						"offset": 0,
						"slot": "0",
						"type": "t_mapping(t_string_memory_ptr,t_struct(Certificate)2310_storage)"
					}
				],
				"types": {
					"t_bytes32": {
						"encoding": "inplace",
						"label": "bytes32",
						"numberOfBytes": "32"
					},
					"t_bytes_storage": {
						"encoding": "bytes",
						"label": "bytes",
						"numberOfBytes": "32"
					},
					"t_mapping(t_string_memory_ptr,t_struct(Certificate)2310_storage)": {
						"encoding": "mapping",
						"key": "t_string_memory_ptr",
						"label": "mapping(string => struct CertificateVerifier.Certificate)",
						"numberOfBytes": "32",
						"value": "t_struct(Certificate)2310_storage"
					},
					"t_string_memory_ptr": {
						"encoding": "bytes",
						"label": "string",
						"numberOfBytes": "32"
					},
					"t_string_storage": {
						"encoding": "bytes",
						"label": "string",
						"numberOfBytes": "32"
					},
					"t_struct(Certificate)2310_storage": {
						"encoding": "inplace",
						"label": "struct CertificateVerifier.Certificate",
						"members": [
							{
								"astId": 2305,
								"contract": "CertificadoMigracion.sol:CertificateVerifier",
								"label": "pdfHash",
								"offset": 0,
								"slot": "0",
								"type": "t_string_storage"
							},
							{
								"astId": 2307,
								"contract": "CertificadoMigracion.sol:CertificateVerifier",
								"label": "merkleRoot",
								"offset": 0,
								"slot": "1",
								"type": "t_bytes32"
							},
							{
								"astId": 2309,
								"contract": "CertificadoMigracion.sol:CertificateVerifier",
								"label": "signature",
								"offset": 0,
								"slot": "2",
								"type": "t_bytes_storage"
							}
						],
						"numberOfBytes": "96"
					}
				}
			},
			"userdoc": {
				"kind": "user",
				"methods": {},
				"version": 1
			}
		}
	}
}