{
  "_format": "hh-sol-artifact-1",
  "contractName": "Record",
  "sourceName": "contracts/Record.sol",
  "abi": [
    {
      "anonymous": false,
      "inputs": [
        {
          "indexed": false,
          "internalType": "uint256",
          "name": "id",
          "type": "uint256"
        }
      ],
      "name": "NewRecord",
      "type": "event"
    },
    {
      "inputs": [
        {
          "internalType": "uint256",
          "name": "_recordHash",
          "type": "uint256"
        }
      ],
      "name": "checkRecord",
      "outputs": [
        {
          "internalType": "bool",
          "name": "",
          "type": "bool"
        }
      ],
      "stateMutability": "view",
      "type": "function"
    },
    {
      "inputs": [
        {
          "internalType": "uint256",
          "name": "_id",
          "type": "uint256"
        }
      ],
      "name": "getRecord",
      "outputs": [
        {
          "internalType": "uint256",
          "name": "",
          "type": "uint256"
        }
      ],
      "stateMutability": "view",
      "type": "function"
    },
    {
      "inputs": [
        {
          "internalType": "uint256",
          "name": "",
          "type": "uint256"
        }
      ],
      "name": "recordToOwner",
      "outputs": [
        {
          "internalType": "address",
          "name": "",
          "type": "address"
        }
      ],
      "stateMutability": "view",
      "type": "function"
    },
    {
      "inputs": [
        {
          "internalType": "uint256",
          "name": "",
          "type": "uint256"
        }
      ],
      "name": "records",
      "outputs": [
        {
          "internalType": "uint256",
          "name": "",
          "type": "uint256"
        }
      ],
      "stateMutability": "view",
      "type": "function"
    },
    {
      "inputs": [
        {
          "internalType": "uint256",
          "name": "_recordHash",
          "type": "uint256"
        }
      ],
      "name": "storeRecord",
      "outputs": [],
      "stateMutability": "nonpayable",
      "type": "function"
    },
    {
      "inputs": [
        {
          "internalType": "uint256",
          "name": "_id",
          "type": "uint256"
        },
        {
          "internalType": "uint256",
          "name": "_newRecordHash",
          "type": "uint256"
        }
      ],
      "name": "updateRecord",
      "outputs": [],
      "stateMutability": "nonpayable",
      "type": "function"
    }
  ],
  "bytecode": "0x608060405234801561001057600080fd5b50610558806100206000396000f3fe608060405234801561001057600080fd5b50600436106100625760003560e01c806303e9e6091461006757806308859824146100975780633075b628146100c757806334461067146100f7578063667b51c714610127578063d1b3997c14610143575b600080fd5b610081600480360381019061007c9190610367565b61015f565b60405161008e91906103a3565b60405180910390f35b6100b160048036038101906100ac9190610367565b610186565b6040516100be91906103ff565b60405180910390f35b6100e160048036038101906100dc9190610367565b6101b9565b6040516100ee9190610435565b60405180910390f35b610111600480360381019061010c9190610367565b610215565b60405161011e91906103a3565b60405180910390f35b610141600480360381019061013c9190610450565b610239565b005b61015d60048036038101906101589190610367565b610260565b005b600080828154811061017457610173610490565b5b90600052602060002001549050919050565b60016020528060005260406000206000915054906101000a900473ffffffffffffffffffffffffffffffffffffffff1681565b600080600090505b60008054905081101561020a5782600082815481106101e3576101e2610490565b5b9060005260206000200154036101fd576001915050610210565b80806001019150506101c1565b50600090505b919050565b6000818154811061022557600080fd5b906000526020600020016000915090505481565b806000838154811061024e5761024d610490565b5b90600052602060002001819055505050565b60008190806001815401808255809150506001900390600052602060002001600090919091909150556000600160008054905061029d91906104ee565b9050336001600083815260200190815260200160002060006101000a81548173ffffffffffffffffffffffffffffffffffffffff021916908373ffffffffffffffffffffffffffffffffffffffff1602179055507f469698a2be6ebcaa39b099479d91186ef98a55f16c7a4710a38d02c0b4d596dd8160405161032091906103a3565b60405180910390a15050565b600080fd5b6000819050919050565b61034481610331565b811461034f57600080fd5b50565b6000813590506103618161033b565b92915050565b60006020828403121561037d5761037c61032c565b5b600061038b84828501610352565b91505092915050565b61039d81610331565b82525050565b60006020820190506103b86000830184610394565b92915050565b600073ffffffffffffffffffffffffffffffffffffffff82169050919050565b60006103e9826103be565b9050919050565b6103f9816103de565b82525050565b600060208201905061041460008301846103f0565b92915050565b60008115159050919050565b61042f8161041a565b82525050565b600060208201905061044a6000830184610426565b92915050565b600080604083850312156104675761046661032c565b5b600061047585828601610352565b925050602061048685828601610352565b9150509250929050565b7f4e487b7100000000000000000000000000000000000000000000000000000000600052603260045260246000fd5b7f4e487b7100000000000000000000000000000000000000000000000000000000600052601160045260246000fd5b60006104f982610331565b915061050483610331565b925082820390508181111561051c5761051b6104bf565b5b9291505056fea2646970667358221220a2f3d13d71f0ded2d900952f1ca3035e4a3d806155e7fff7f70e2170e042e91364736f6c63430008180033",
  "linkReferences": {},
  "deployedLinkReferences": {}
}